:020000040800F2
:1060000008040020016601087DA904083918010868
:106010003918010885A904088DA904083918010850
:10602000391801083918010839180108713D0608A6
:1060300091A904081C870608153D0608B7790608CB
:1060400039180108391801083918010839180108E8
:1060500039180108391801083918010839180108D8
:1060600039180108391801083918010839180108C8
:1060700039180108391801083918010839180108B8
:1060800039180108391801083918010839180108A8
:10609000B15802084D58020839180108391801088A
:1060A0003918010839180108391801083918010888
:1060B0003918010839180108391801083918010878
:1060C000391801083918010839180108BB190108E5
:1060D0003918010839180108391801084919010847
:1060E000251901083918010839180108391801085B
:1060F0003918010865B7050855C00508453906086F
:1061000041390608C9B705085B3906084939060848
:1061100025C005084D39060895C00508FDC00508CD
:106120003918010839180108391801083918010807
:10613000C96E010839180108391801083918010811
:1061400039180108391801083918010839180108E7
:1061500039180108391801083918010839180108D7
:1061600039180108391801083918010839180108C7
:1061700039180108391801083918010839180108B7
:10618000391801089D7101083918010831580608AD
:106190006DA1050839180108253906082B390608AC
:1061A0003918010839180108391801083918010887
:0461B0003918010891
:1061B400F0B5114A114C124E00F00105E3695F0776
:1061C40013D40DB9334213D103EA00078F4207D128
:1061D4000B4A1A40002A0CBF00206FF00100F0BDEA
:1061E400013AEBD16FF00200F9E74FF0FF30F6E728
:1061F4006FF00100F3E700BF8096980000000350A1
:10620400020001002DE9F84F16464FF48032274B67
:10621400274D9A66EB69074603EA020841F6713393
:106224000122EB63234BDFF89490DA600EB9304619
:1062340029E007F5005404EA09046F61E41BEB69E3
:10624400B44228BF34465B072DD48B465BF8043B2D
:1062540001EB040AAB61D3450ED1042300212120B4
:106264002B61FFF7A5FF70B92120FFF7A1FF50B9FB
:1062740059462744361BD9E708210846FFF798FFFB
:1062840068B104232B6101220B4BDA60B8F1000FD3
:1062940003D00022A3F50053DA63BDE8F88F5BF85E
:1062A400043BAB61D7E74FF0FF30ECE700900050C0
:1062B40000000350001003500020035000E0FFFFD3
:1062C800D0F870311B689A6C5206FCD500205964CE
:1062D8007047D0F870311B689A6C120643BFDB6BAD
:1062E80000200B701B207047D0F8703101221B680A
:1062F80019B103F580531A65704703F500531A6501
:10630800DA6470474FF06042D2F8803E1B02FBD43B
:10631800704780F89910704790F89900704790F886
:106328009600704790F8A10070479A4238BF885489
:106338007047704710B1D1E90031184770472DE90F
:10634800F84F9846DDE90B490D9B15469A07064616
:106358000F4623D02A460A9B03EB040A1444A242A0
:1063680020D10D9B9B0705D5A2EB050AD14505EB6E
:106378000A0420D82046BDE8F88F43463946202035
:10638800B0470AF1010ACA450AEB0B02F5D3A9EB9B
:1063980004024C4588BF00222A44DCE7A246A5EB4C
:1063A800040BF0E702F1010B434639461AF8010DD8
:1063B800B0475A46D3E74346224639462020B047DD
:1063C8000AF1010AD2E72DE9F0479E46DDE90D3CC6
:1063D800DDE90874DDE90B651CF0020F9DF82880E3
:1063E8001FD10CF001094BB1B9F1000F06D0B8F17B
:1063F800000F02D11CF00C0F00D0013B4FF0300A07
:1064080002E007F804A00134A54201D9202CF8D1F4
:10641800B9F1000F05D04FF03009A34201D9202C63
:106428001BD11CF0100F15D01CF4806F32D1C4B1F1
:10643800AC4201D09C422DD1651E12D0102E36D10F
:106448001CF0200FA4F1020456D178263E553026C0
:106458006C1C7E55202C36D00DE007F804900134D2
:10646800DBE7102E10D11CF0200F26D178243C70C9
:1064780030247C700224B8F1000F31D02D253D5511
:10648800013421E06224F2E7022EFBD030243C7074
:106498000124F0E7102E12D11CF0200F2AD1202C55
:1064A80011D07826651C3E55202D0CD0CFE7022E42
:1064B800CDD162247C550135F6E75824D7E7022E62
:1064C8000CD1202C08D12024CDE90A3CCDE9087450
:1064D8007346BDE8F04732E72546EAE72546E3E795
:1064E8001CF0040F01D02B25C9E71CF0080FEBD0D6
:1064F8002025C4E7202CE6D05826651CD3E72DE9D3
:10650800F04391B0189E1A9F1D9C002E38D124F09C
:10651800100C14F4806421D11CF0200F14BF4FF02C
:10652800410E4FF0610E00260DF12008AEF10A0E63
:10653800B4FBF7F907FB19495FFA89F5B9F1090FB7
:1065480094BF30357544EDB2BC4208F8015B06F1E2
:106558000106B4FBF7F501D3202E14D11C9CCDF80D
:1065680018C005941B9CCDE903749DF86440CDE9DF
:10657800016408AC0094FFF726FF11B0BDE8F08372
:10658800A4463446C8E72C46D2E72DE9F04F95B02B
:10659800CDE90A23DDE91E65DDE9228B56EA05020D
:1065A800CDE90801269B39D15A0523F010093AD4C0
:1065B80019F0200F14BF4123612300240DF1300A84
:1065C800A3F10A07294642465B46304656F070FC5E
:1065D800D2B2092A94BF3032D2194645D2B275EBED
:1065E8000B0504F101040AF8012B01D3202C17D163
:1065F800259BCDF818900593249BDDE90801CDE98A
:1066080003839DF88030CDE901430CAB0093DDE9AD
:106618000A23FFF7D8FE15B0BDE8F08F9946C7E703
:1066280006460D46CEE70024E2E72DE9F04F93B089
:10663800CDE90A32DDE91C530E9353EC102BCDE95A
:106648000801104619468DED060B1E9E57F0E2FC18
:1066580080B1DDE906014FF0FF32C54B57F002FD6E
:1066680040B9DDE906014FF0FF326FF4801357F0AF
:10667800DBFC68B1DDE908019DED060B0E9B1E965B
:10668800CDE91C53DDE90A3213B0BDE8F04F84E1CF
:106698000022DDE90601002357F0C6FC002800F0BF
:1066A8003381DDE906A303F1004BCBF30A5016F45E
:1066B8008063A0F2FF3008BF06250F9357F0D8F982
:1066C8009BA3D3E9002357F03DFA9BA3D3E900230A
:1066D80057F082F8CBF31304894644F07F51804683
:1066E8000022A44B504641F4401157F073F894A38C
:1066F800D3E9002357F026FA02460B46404649469E
:1067080057F06AF857F0B8FC044657F0B1F98EA371
:10671800D3E900238046894657F014FA0022964BA5
:1067280057F05AF857F0A8FC89A3D3E90023074685
:106738004946404657F006FA80463846894657F09B
:1067480097F985A3D3E9002357F0FCF902460B46D5
:106758004046494657F03EF802460B46CDE90C2321
:1067680057F0F0F9DDE90C238046894610461946B2
:1067780057F032F80022CDE91001804B40464946D7
:1067880057F00AFB00227E4B57F026F802460B46CC
:106798004046494657F000FB00227A4B57F01CF858
:1067A80002460B464046494657F0F6FADDE90C2307
:1067B8008046894600204FF0804157F00BF802468A
:1067C8000B464046494657F007F802460B46DDE9B6
:1067D800100157F0E1FA07F2FF3700226A4B56F032
:1067E800FBFF00223B0557F0ADF952465B46804659
:1067F800894657F037FC002840F08980CDE90C899C
:1068080004F16303C72B34BF0427052731051BD5C3
:1068180053A3D3E900235046594657F019FC0028E2
:106828007FD051A3D3E900235046594657F0FCFBCB
:10683800002876D00027A542C6BF2C1B04F1FF35DF
:1068480000253C4646F480660E9B9F422CBF4FF0C5
:106858000008A3EB070816F0020903D0002F18BFA1
:106868004FF000083CB1DDE90C235046594657F07B
:1068780093FA82468B46DDE906010022002357F091
:10688800D3FB10B10BF100439B46DDE9080126F468
:106898000063CDE90183DDE90A324BEC10AB0095CA
:1068A80000F07BF802465FB3DDE9091316F0200F0C
:1068B80000F10105089E0CBF65204520B047DDE9C1
:1068C80008010523002205930A23002CCDE9023292
:1068D80007F1FF374FEAD473B8BF64422A460193E1
:1068E80004970A9B0094FFF70AFE0246B9F1000FCD
:1068F80006D00B9BC41A0B9B1A190E9BA34245D8B2
:10690800104613B0BDE8F08FDDE906ABCDE60022F6
:10691800404649461A4B57F03FFA013CCDE90C0175
:106928006EE7002D90D00F9B002B8DD0013D8BE79B
:10693800FB799F501344D33FB3C8608B288AC63F66
:1069480061436F63A787D23F71A379094F930A40C8
:106958001655B5BBB16B0240EF39FAFE422EE63F41
:106968002D431CEBE2361A3F0000000080842E41C4
:10697800FFFFEF7F0000F83F0000E03F00002C40E1
:1069880000002440000018400000F03F2020DDE90E
:106998000913089DA8470134ADE72DE9F04F5BECDA
:1069A80010AB97B0CDE90501DDE92057CDE9072304
:1069B800504652465B465946229E57F02BFB70B90B
:1069C8000323CDE902760193AF4B0093DDE905017E
:1069D800DDE90723FFF7B3FC17B0BDE8F08F4FF0F0
:1069E800FF326FF480135046594657F01DFB28B10B
:1069F8000423CDE902760193A44BE6E74FF0FF327A
:106A080050465946A24B57F02DFB68B1A14A06F0F3
:106A18000403002B08BF03229F4B1CBF134604220C
:106A2800CDE902760192D0E7504693A3D3E900233B
:106A3800594657F017FB38B991A3D3E900235046BC
:106A4800594657F0F1FA60B1DDE90723DDE90501A0
:106A58004BEC10ABCDE92176209517B0BDE8F04F8F
:106A6800E3E5002200235046594657F0DDFA002896
:106A780000F09A805B4652460020002156F0AAFE9C
:106A8800012382468B46099316F4806400F08E80B9
:106A9800092D40F28E80002430210EABA5F10902A9
:106AA8000134202C03F8011BA5EB040901D0944202
:106AB800F6D15946504657F0DFFA784B054603EBB6
:106AC800C90393ED007B8DED0A7B56F0D1FF02469A
:106AD8000B465046594656F07DFEDDE90A2357F02D
:106AE80031F802460B46CDE90C2357F0EDFA804603
:106AF80056F0AEFF02460B46DDE90C0156F06AFE81
:106B080002460B46CDE90C230022654B57F0AAFA42
:106B1800002851D008F10108404656F099FF024676
:106B28000B46DDE90A0157F089FA10B14FF0000869
:106B38000135B9F1000F50D1284656F099FF0246A9
:106B48000B465046594656F045FE0022544B8046A7
:106B5800894657F069FA30B1002240464946504B01
:106B680057F080FA10B1E80700D501350A210EABBD
:106B78001A19202C0AD095FBF1F001FB105530357D
:106B880002F8015B013405460028F2D106F0030241
:106B9800012A57D1002F55D0099A12B916F00C0FB7
:106BA80000D0013F302245E009906DE74FF006091B
:106BB8007FE7A94600247CE70022DDE90C01384B79
:106BC80057F032FA0028B4D1B8F1000F02D018F00B
:106BD800010FAED008F10108ABE70A210EAB234440
:106BE800202C0ED0B8FBF1F001FB1082B8F1090F90
:106BF80002F1300209F1FF3904F1010403F8012B15
:106C080011D83021A1440EAA202CAFD0A14504F1FF
:106C180001030AD11C4609F158030DEB03092E2381
:106C280009F8203CA2E78046DAE7A1541C46EBE7C6
:106C38001A550134A74205D9202CF9D1CDE902769D
:106C48000194C2E6202CF9D0099A3AB12D2104F119
:106C580058026A4402F8201C0134EFE7710704D592
:106C680004F158022B216A44F4E73207E6D504F10F
:106C7800580220216A44EDE70000000065CDCD41AF
:106C88000000000065CDCDC182870608868706080A
:106C9800FFFFEF7F798706087E870608108C0608B5
:106CA8000000E03FA0F50623A3F55063B3F5807F0D
:106CB800024612D8580908280FD0012302F01F02F3
:106CC80003FA02F2064B03EB8003D9681143D9603B
:106CD800D96A21EA0201D96270474FF0FF30704744
:106CE8009815002010B5A0F50624A4F55064B4F555
:106CF800807F1CD86409082C19D001220D4B00F0A4
:106D08001F0003EB84018240C86A0C330243CA6245
:106D18000022114653F8040B0132082A0144F9D124
:106D280019B92022044857F0EFF9204610BD4FF05A
:106D3800FF34FAE798150020C415002020F0FF035F
:106D4800B3F5824F06D14138C0B2012894BF002064
:106D5800012070470020704710B500244368146074
:106D68001B0A04D0012B0AD06FF0850010BD0088E3
:106D7800FFF7E4FF00B1013100201160F6E72C3184
:106D8800FAE7F8B5134642880C460732072A4FEA55
:106D9800D20101D0A1426DD1D0E901670588202236
:106DA8001846002157F0B0F9360A034626B1012EDD
:106DB80011D06FF08B00F8BD002C5BD041F20102BE
:106DC800954205D0B5F5885F02D0B5F5905F1BD127
:106DD8005C600020EFE7C660002C4BD041F2010256
:106DE80095420BD15C60B90707F001021FD4002A55
:106DF800EFD19A6842F080729A60EAE7B5F5885F49
:106E0800F0D0B5F5905FEDD0B5F5105F0AD1182C2C
:106E180003D0202C01D0102C2CD1C3E90044002E23
:106E2800D7D0E0E705F44F42B2F5824F02D06FF0B9
:106E38008500C0E7EAB2122AF9D1202CF7D10F4A0F
:106E480025F0FF05B5F5E24F1A600CD0B5F5824F75
:106E580010D14FF4005217F4705F09D017F4864F21
:106E680004D09A60E3E74FF48042F4E742F480628A
:106E78009A60D4E76FF086009DE700BF200000808D
:106E88002DE9F84F284F06468846154697F84CA036
:106E98005DF038FA022817D0002405F1040905F13D
:106EA800090B5FFA89F9A34515D85DF02BFA02287A
:106EB80002D130685DF0B2F9002097F84C30013308
:106EC80087F84C30BDE8F88F306860F0FBF900288F
:106ED800E2D00120F6E7052C11D8DFE804F01E08FF
:106EE800030A0C0ED12040F0E9FE0134DBE74846E6
:106EF800F9E70220F7E70020F5E75046F3E7AB1D76
:106F08009C420CD0EB1D9C4209D005F108039C4221
:106F180007D0A8F10603185DE5E75B20E3E75A20F0
:106F2800E1E75D20DFE700BF98150020012910B5D3
:106F380002D9022914D010BD144B1C6DA4F5C274DB
:106F480014F5C27FF7D0D4F8740161F086F8D4F84C
:106F58007031052118680FF013F9D4F88441EDE772
:106F68000A4B1C6DA4F5C27414F5C27FE3D094F8E3
:106F7800973043B994F8953003F0FF011BB9D4F862
:106F8800740160F0D1F9D4F88441EBE7981500203A
:106F980010B1006E61F0D4B870472DE9F743D0E91D
:106FA800043404F17C07D0F80C900646013B10220B
:106FB80000213846D4F874809DB257F0A5F80C4BE0
:106FC800C5F30A0543EA0513C4E91F39012394F8F8
:106FD800780084F88C30C4F884803A46054B0096D3
:106FE80004F1640143F0AEF803B0BDE8F08300BFDC
:106FF8000000103001700008536910B514460022D3
:10700800D3F8900083F88C2028B10168C3F8901059
:107018000260FFF7C2FF63681BB100212046A26827
:107028009847002010BD034693F89420084610B5F1
:10703800FAB10A69B2F5006F1DD8EFF31184302256
:1070480082F3118893F88C204B617AB103F1900296
:10705800D3F890303BB90360106084F31188BFF314
:107068006F8F002010BD1A461B68F3E7FFF795FFE6
:10707800F3E70E20F6E72120F4E7F0B50B46C168E8
:10708800044601298DB036D12B2A03D86FF0890028
:107098000DB0F0BD13F003071A460DD001AD03F192
:1070A800280C2E4610685168083203C662453546DA
:1070B800F7D1106801AA30600121118000215180A8
:1070C8002168516061689160A168D1609FB101AA8F
:1070D80015460BAE144603CCB442186059602246DC
:1070E80003F10803F6D12068186000231A46EA5411
:1070F80001332C2BFBD10020CAE708B51FF00CFA8E
:10710800024B986DBDE8084060F004BA981500205D
:1071180073B50D46910730D483072ED1034622F06C
:10712800030281188B4217D14FF48031174BAC18EA
:10713800996641F6713103F51C33D963012103F5D2
:107148000053D960461BA54205EB060009D102B0E1
:10715800BDE870400FF004B91C6801340DD1043348
:10716800E0E7042255F8043B0DEB0201019361F0BE
:107178002FF80028E7D00FF0F3F84FF49C7104487B
:1071880002B0BDE870405EF0CFBE00BF0090005076
:107198008B8706082DE9F7430446E0070F46154696
:1071A80004D54FF4F27137485EF0BEFEE90704D506
:1071B80040F2E51133485EF0B7FE04F47043B3F5CE
:1071C800805F40D1C4F30B042F4A04F17E646B1E28
:1071D8002344934204D94FF4FF712A485EF0A4FE79
:1071E8002646DFF8A09006EB0508464540D1A207E1
:1071F8000ED04FF6FF7337F8022BA01E43EA024366
:1072080004220DEB02010193FFF782FF0234023DD5
:10721800AB070ED0023D25F00103FB5A04226FEAAA
:1072280003436FEA13430DEB020160190193FFF763
:107238006FFF25B12A4639462046FFF769FF00202F
:1072480003B0BDE8F08304F46043B3F5005F06D1F2
:10725800C4F30B0404F1036404F5F034C0E740F20E
:10726800062108485EF060FE6FF00F060024B8E7BC
:1072780016F8013BFF2BB8D040F2112148465EF0CA
:1072880053FEB2E78B870608FF03E00F08B538B155
:1072980060F08FFE002814BF6FF01D00002008BDAD
:1072A8006FF01B00FBE708B538B160F047FD002818
:1072B80014BF6FF01D00002008BD6FF01B00FBE736
:1072C80007B58DF8071030B90FF0A2FA18B92320C6
:1072D80003B05DF804FB4368002BF8D001220DF1E0
:1072E800070100689847F3E70B4601461846E7E7A9
:1072F800014608B10020E3E77047302337B5007D29
:107308000DF10701434303F1A04303F58023DD6E2C
:107318001C6F60F0D9F99DF8070040B9054B9D42F4
:1073280003D184F00204C4F3400003B030BD01204F
:10733800FBE700BFF415002010B50446FFF7DDFF9A
:1073480038B1236DD4E912020244934218BF18469B
:1073580010BD3022237D534303F1A04303F580235E
:10736800DB6EEFE73021037D02464B4303F1A04378
:1073780003F58023D86E07491B6F884208D113F0A4
:10738800020006D0106A136D1B1A58425841704704
:1073980000207047F415002038B50446007D0CF035
:1073A80031FC2046FFF7DEFF0546207D0CF04CFC43
:1073B800284638BD7FB504460D4690F8A1605CF0BC
:1073C800A1FF022817D1D5B1AEB9114B6846CDE956
:1073D800003604F1FC0302932023039360F0D2FDEE
:1073E8000646C4F8F8002046FFF7D6FF18B9012171
:1073F800304660F0AFF984F8A15004B070BD002E9B
:10740800F9D0D4F8F80060F0B3FEC4F8F850F2E709
:10741800548806082DE9FF470446007D04F1380624
:107428000CF0F0FB10220021304656F06DFE4FF0B4
:10743800300A4FF44473207DDFF810913F4F638783
:107448000AFB0093C4E90F77DB6EBB4204D104B09A
:10745800BDE8F0470CF0F8BB0DF10F0160F034F90E
:107468009DF80F70002F62D12046FFF765FF344A60
:1074780080461278237DEAB1072B1BD8314A02EBEC
:107488000312127BB2B1EFF311818AF31188D9F894
:1074980034000AFB0399D9F8642081F31188BFF3FB
:1074A8006F8F012101FA03F3034204BFC2F30A13E9
:1074B8005F183D4604F11807102200213846D4F819
:1074C800109056F021FE3022237D013D5343C5F331
:1074D8000A052D0145F04075C4E9065903F1A0439A
:1074E800C4F8208003F580231A6F94F824105208FA
:1074F80062F3410184F82410196F94F8242027F0CE
:10750800030761F3000284F824201B6F626A9B085A
:1075180063F39F0247F00207626267640094207D6C
:1075280032462146084B42F00DFE207D8FE794F845
:1075380044306FF3410384F84430EFE7F41500203A
:10754800980D002070090020D17700080000045031
:107558002DE9F04F87B004469946CDE903215CF048
:10756800D1FE0228054615D1D4F8A4005FF0AAFE82
:10757800002840F0278194F8A1305BB1D4F8F85086
:1075880045B160F0E9F9034620B9024601212846D1
:107598005FF016FD0023C9F80030D9F80050039BAE
:1075A8005E1B00F0A080049B5D1900F09C802046C3
:1075B800FFF7F2FE8246002840F095802046FFF74C
:1075C800BBFE216D88429CBFD4E91203C018401A43
:1075D80094F89A30864228BF06460293002B00F0A2
:1075E800BC80EFF3118B302383F311883746D4F82E
:1075F80050802046FFF781FE08EB06029045D4F83C
:107608009C3040F08180D4E912120A44934208BFAA
:10761800C4F89C108BF31188BFF36F8F0290207D04
:107628000CF0F0FA2046FFF768FE05462046FFF703
:1076380083FED4F850B08246584540F29C80A36C33
:10764800B5B29B4540F08F80236904F128081022C9
:1076580000214046059356F057FD3021059B013D1A
:10766800C4E90B3B237DC5F30A054B432D0128F0E4
:10767800030803F1A04345F0407548F0020203F502
:107688008023A5621A67236DD4E9121233440A4491
:10769800934208BF0B46534523650DD194F8A1309A
:1076A80023B10121D4F8F80060F022F80123204624
:1076B80084F85430FFF7AEFE207D0CF0C5FA94F83C
:1076C8009A3033B1029B23B1236E112120465B68A7
:1076D800984747B1D9F80030039A3B449342C9F818
:1076E8000030FFF45AAF5CF00DFE022803D1D4F845
:1076F800A4005CF093FDD9F80030002B14BF0020E3
:107708001B2007B0BDE8F08F08F1010808F1FF3130
:107718008B4211D1C4F89C8018F8013C112B01D080
:10772800132B15D1013FA3F111014B424B41DDF859
:1077380008A084F8A03061E718F8013C03F0FD01C7
:10774800112907D1013FBAF1000F3FF457AFEAE71B
:10775800DDF808A005F8013B50E7324628465CF002
:107768009CF937465BE7238DC3F30A12154465F38A
:107778000E13238587E7207D95B93023434303F112
:10778800A04303F58023596E5A6EC1F30A1122F4FF
:10779800FF42314422F0700242EA01125A6672E74F
:1077A800CDE900645246236921683FF085FF302205
:1077B800237D534303F1A04303F580235A6E22F43B
:1077C8008012EBE728469CE792F8543037B5144608
:1077D80033B1936D0BB1D06D9847002384F85430C2
:1077E80094F89A301BB32046FFF787FDF8B1236E53
:1077F800132120465B6898471025236E20461B6896
:107808000DF10701984778B99DF8073003F0FD029C
:10781800112A05D1A3F111025342534184F8A03033
:10782800013D15F0FF05E8D12046FFF7F3FD0023E1
:1078380084F8543094F8A1304BB15CF063FD023801
:10784800012804D80121D4F8F8005FF083FF002054
:1078580003B030BD0E2070470E2070477047704748
:10786800704707B5002101AA01913FF06DFC01980E
:1078780003B05DF804FB2DE9F04F85B0002800F057
:10788800EF807A490B6E9842C0F0EC804A6E134440
:10789800984280F0E780D1E91D4EEFF3118B302339
:1078A80083F3118810F8087C30F806CCFB07A0F1A8
:1078B800080602D5BCF1000F07D18BF31188BFF37E
:1078C8006F8F012005B0BDE8F08F8D6ED1F87090F4
:1078D800A5EBCC0330F8048C01938B6609F1010306
:1078E8000CF101020B67B8F1000F40D04FEAC80352
:1078F8000293A6EBC803DD88B3F802A003951D78B0
:1079080007F00207ED0723D41FBB039DA5EB0A0769
:10791800012F2CD1019D0CF10202083D5244C1F8FF
:1079280070908D6630F8028CB8F1000F21D110F8F4
:10793800085C20F8068C68F3000500F8085C013A3A
:107948005A801A7868F300021A700022DA8043E03D
:107958006FB1DDE901757D1B8D6610F8085C424446
:107968006FF3410500F8085C00259D80DAE733468F
:10797800D8E706EBC809D1E918572F44B9450ED303
:1079880010F8085C013A6FF3000500F8085C002560
:1079980020F8065C5A801A7865F30002D4E716F8D6
:1079A80038604D4616F0010630D010F8086C013AE0
:1079B8006FF3000600F8086C002692B220F8066CF7
:1079C8005A801A7866F300021A70C3F107022A4433
:1079D800C2F3CF02DA80AA80002C3FD09C423DD867
:1079E8006288002A08BF1C46BEF1000F06D09E45DB
:1079F80004D3BEF80220002A18BF7346C1E91D430C
:107A08008BF31188BFF36F8F00205BE7A8EB0C089E
:107A1800B8F1010FC9D1B9F80270A9F8026017448A
:107A2800B9F80620C2B109EBC20500260A6F013A6F
:107A38000A678A6E083A8A6610F8082C20F8066CDD
:107A48006FF3000200F8082C1A785F8066F30002D2
:107A58001A70002DB9D178E71546E6E71C46C3E74A
:107A680022202FE700235B69FFDE00BF9815002066
:107A780001E713B50B46002101916BB160B103FB1F
:107A880000F401AA20463FF05FFB014620B90198A7
:107A980010B1224656F038FB019802B010BDFEE73F
:107AA8000846FFF7DEBE0846E5E608461146E0E769
:107AB800002303604360704700232DE9F7438C4E91
:107AC8000193736E0C469A42104604D239B912B12A
:107AD80001AA3FF039FB019803B0BDE8F0831AB959
:107AE8000846FFF7C8FEF6E7EFF31188302383F363
:107AF800118831F8063C0730DF0020F00705AF4257
:107B0800A1F1080C80F0848031F8022C002A69D099
:107B1800D11A012966D10CEBC2091CF83220D20710
:107B280060D4B9F802107A1B12EBC1025AD41F2A8A
:107B380035DD6019C5F3CF0524F8065C013524F856
:107B4800025CFFF7B5FFD30834F8022C438082802B
:107B5800B9F8062002B3B9F80210511A11FA83F3E2
:107B68009BB209EBC202C3809380002249463FF0D2
:107B7800A7FA4846FFF79CFF002234F8061CB36EAC
:107B8800019403EBC103F16EDB1B8B42B3663DD856
:107B980072B3083BB3662BE00023C380E5E7326F7E
:107BA8000133013A3267B9F806200B4424F8063C41
:107BB800A2B1B9F80210511A11FA83F39BB209EB7A
:107BC800C20224F8023C93806046012249463FF0F5
:107BD80077FA4846FFF76CFF0122CEE7002324F826
:107BE800023CF1E70021284601AA3FF0ADFA20B196
:107BF80088F31188BFF36F8F6DE73A4621460198E5
:107C08005BF04BFF2046FFF736FEF1E7F366BFE770
:107C18006BD934F8020C791B421ED21A98B31CF89F
:107C280030300CEBC009DB072ED46ABBC5F3CF0399
:107C380024F8063C0133601924F8023CFFF738FFAA
:107C4800B9F8022002EBD10334F8022C4380828079
:107C5800B9F80620AAB1B9F80210511A11FA83F33B
:107C68009BB209EBC202C3809380002249463FF0D1
:107C780027FA4846FFF71CFFB36E01942B44DB1B21
:107C880088E7C280F1E7814627292ED9C5F3CF03BB
:107C980024F8063C0133601924F8023CFFF708FF7A
:107CA8004B1E34F8021CDB0843808180B9F1000FB9
:107CB80018D0013212FA83F39BB2C380A9F80430BA
:107CC8000022336F1146013333673FF0F9F9B36E81
:107CD800F26E08332B44DB1B93420194B36687D9B9
:107CE800F36685E7A0F80690EAE7019480E700BF0D
:107CF8009815002010B5094B1B7873B1084C2378F0
:107D08005BB15DF039F90022064B227083F89C20A4
:107D1800012283F89D2083F89E2010BDD90E0020F3
:107D2800DA0E0020981500200122014B1A707047C6
:107D38009815002010B5EFF31184302383F31188D0
:107D48004FF4E0600DF0CCFF092815D00A3801285F
:107D580006D94FF6FF7084F31188BFF36F8F10BDFB
:107D68004FF48002064B5A6603F5D8335B6ADB078B
:107D7800EFD54FF4FA70EEE7024B1888EBE700BF37
:107D880000900050E46F002030B585B05CF0BAFA7E
:107D9800022814D10B4DD5F8B4304BB96C460A4BB8
:107DA8000FCB84E80F0020465FF0F5FEC5F8B4005D
:107DB800D5F8B40005B0BDE830405FF083BA05B02F
:107DC80030BD00BF98150020648C060808B55CF02B
:107DD80099FA022806D1044BD3F8B400BDE808404C
:107DE8005CF01CBA08BD00BF98150020B0F1006F08
:107DF8000FD300F07843B3F1006F0CD000F060406F
:107E0800B0F1404F09D0B0F1604F14BF04200320F7
:107E18007047002070470120704702207047F0B576
:107E2800294B044693F8B8300D46164685B0002B0A
:107E380047D0FFF7DBFF012805D90238C0B2012877
:107E480034D9212423E014F48013C4F3130725D074
:107E58001E4E96F83430A3B3012130460BF038FF9C
:107E6800394630461A4A0DF10F030CF018FB044648
:107E780080B99DF80F30032B0CD0022B0CD1304663
:107E880013490BF082FF2860F06B42F01FF920467F
:107E980005B0F0BD2D24F7E76124F5E700920B4803
:107EA8000A4639460CF0DEFB0446F0E7FFF76CFFA4
:107EB8003246294620463EF039FA0446FFF786FF47
:107EC800E5E71124E3E700BF98150020580E0020CD
:107ED800F80D00201B4B2DE9F04193F8B830064609
:107EE8000D4617465BB3FFF781FF012805D9841EAD
:107EF800E4B2012C12D921241CE0F302C6F31301C9
:107F080005D52A681048BDE8F0410DF047B813467A
:107F18000D482A46BDE8F0410CF0FABFFFF734FFE0
:107F28005FB155B13A462946B0B2FFF733F9044676
:107F3800FFF74CFF2046BDE8F0812124F8E7112423
:107F4800F8E700BF98150020580E00202DE9F04FE3
:107F5800984691B00B1E0A93AF4B914614BF8346C7
:107F68009B4600241A9E98F8000070B94C4538BF0B
:107F780022464B464FF000000A9928BF09F1FF320C
:107F8800D847204611B0BDE8F08F252808F1010830
:107F980006D022464B460A99651CD8472C46E2E78C
:107FA80000230DE02D2A2AD0302A06D0303A092A9B
:107FB8004FF0000711D80A2532E043F00103884644
:107FC800414611F8012B2B2A1CD0EBD8202A1CD0B3
:107FD800232A1DD02A2A2BD0002798F800202E2AE1
:107FE80064D198F8011008F10102A1F130000928C4
:107FF80043F4806350D800254FF00A0C26E043F084
:108008000203DCE743F00403D9E743F00803D6E7AB
:1080180043F01003D3E7884605FB0722A2F1300797
:10802800414611F8012BA2F130000928F3D9D4E711
:1080380056F8047B8846002FBCBF43F002037F42FA
:10804800CBE702460CFB0511A1F13005104610F8EC
:10805800011BA1F1300EBEF1090FF2D9904642463C
:1080680012F8011B6C292AD022D8682930D06A2935
:1080780039D018F8010B67287AD857284FD84528DF
:1080880007D086D9462800F03781472881D143F4A4
:10809800006343F0200345E12A2906D156F8045B22
:1080A80008F1020825EAE575D9E790460025D6E7E4
:1080B800742901D07A29DCD143F480730EE098F852
:1080C80001106C29F8D143F4407308F10208D0E795
:1080D80098F80110682903D043F080039046C8E758
:1080E80043F0C003F1E743F40073F7E70A2A00F00E
:1080F8006481072A7FF44DAF43F0210305930823D9
:10810800CDE903531023CDE9011356F8043B224669
:10811800009358464B460A99FEF7F1F9FCE0A0F1A6
:1081280058020F2A3FF635AF01A151F822F000BFDF
:10813800A98100089B7F00089B7F00089B7F00089F
:108148009B7F00089B7F00089B7F00089B7F00089F
:108158009B7F00089B7F0008A98100084B830008CB
:10816800A9810008258300080583000825830008E5
:10817800A0F16902D2B20F2A3FF60BAF012149F2F2
:10818800410C914011EA0C01B0D0782803F48061C9
:1081980025D1002900F0918023F00D02102307E07B
:1081A800622803F4806227D1B2B923F00C020223BB
:1081B80012F4007100F08480CDE907720022CDE945
:1081C800043206F1070A2AF0070A06950292FAE82D
:1081D8000223CDE900233DE023F00D02E7E76F28F5
:1081E80012D0692823F0100240D023F01C0209B1F4
:1081F80023F01D020A23DBE758280FD19ABB23F08E
:108208000C0242F02002C9E719B923F00C02082336
:10821800CEE723F00D02FAE73B63000842BB23F0E8
:108228001002930527D5073626F00706B24671686F
:108238005AF8083B0A26CDE907720027CA0F002919
:10824800CDE904670695029202DA5B4261EB4101CF
:10825800CDE900314B46224658460A99FEF795F972
:10826800044656467FE623F00D02CAE70029D8D017
:1082780023F01102D5E7D00506F1040A01D53368C9
:1082880003E0510614D596F90030CDE904720A22AC
:10829800002B02924FEAD37203950192B8BF5B425A
:1082A80000934B46224658460A99FEF728F9D7E725
:1082B8001306E4D5B6F90030E7E723F00C026DE7C2
:1082C800D00506F1040A06D5CDE90472CDE90235D8
:1082D80001913368E4E7510608D53178CDE90235D4
:1082E8000023CDE90472CDE90013DAE7316812F012
:1082F800800F18BF89B2F1E743F02003CDE901737D
:10830800073626F007060095B6EC020B4B462246C8
:1083180058460A99FEF741FB044624E6672801D12E
:1083280043F40063CDE90173073626F0070600958C
:10833800B6EC020B4B46224658460A99FEF775F9E9
:10834800EAE713F0020523D04FF0010A631C0B93F0
:1083580022464B460A9916F8040BD8475DB3544693
:108368000B9A1EE04B4620200A99D8470AEB0402D4
:108378000AF1010ABA45F5D3002F07F1FF3308BF08
:10838800002307F1010A1C4408BF4FF0020ADDE789
:10839800AA46EBE7551C4B4620200A99D8472A469F
:1083A8000134BC42F6D3A7EB0A03574538BF002374
:1083B8000B9A1A440B920B9CD5E53246002D52F8C5
:1083C800046B14BF29464FF0FF310B9232463144FB
:1083D800107808B18A4211D1A2EB060A13F4806220
:1083E8000C9202D0AA4528BFAA4613F002030D93A7
:1083F8001BD1AAEB040322460F9308E00132E7E7FA
:10840800531C0E9320204B460A99D8470E9A0F9B6F
:10841800D3189F42F4D8A7EB0A03574538BF002367
:108428000AF101021C4403EB020AA31B0E9304E0A9
:108438001D464B4622460A99D8470E9B9C1916F8AA
:10844800010B28B10C9B002BF3D06B1E002DEFD134
:108458000D9B93B12246AAEB040505E0561C4B463A
:1084680020200A99D84732465319BB42F6D3A7EBC6
:108478000A03574538BF00231C440B9E73E50FB40D
:108488001FB506AA52F8043B02A9039200920548B8
:108498004FF0FF32FFF75AFD05B05DF804EB04B06A
:1084A800704700BFF97200080CB41FB506AC54F849
:1084B800043B0A460094014604480394FFF746FD2E
:1084C80004B0BDE8104002B0704700BF3363000835
:1084D80038B5451E15F8014F2CB90A212046FEF77C
:1084E800EFFE204638BD21460020FEF7E9FEF1E701
:1084F8001FB5034600914FF0FF3203A90248FFF76A
:1085080025FD05B05DF804FBF972000807B5009376
:1085180013460A4601460348FFF718FD03B05DF805
:1085280004FB00BF3363000870B5032916461C46D8
:10853800049D01D9212070BD02D15AF0A1FC014649
:108548000C4B93F8C6208A42F4D9D3F8BC0009B280
:1085580001EB410100EB810116B1B1F90430338020
:1085680014B1B1F90630238015B1B1F908302B8068
:108578000020E0E7981500202DE9F0432B48079FDD
:1085880090F8C64094424DD9D0F8BC6002EB420244
:108598004FEA820C16EB820246D05089002843D05D
:1085A800B2F90440B2F906508C42B2F908E02FDC67
:1085B800A942A8BF2946BEF1000F35D000F1FF3807
:1085C8001FFA88F80EFB08490A1B92FBFEF24D457C
:1085D800D8BF404692B2904202D3A94218BF104673
:1085E80056F80C2052F8206002EB800C18B15CF8A9
:1085F800048D46450ED08D421EBF1EFB00F10919A1
:1086080009B2994209DC00203E60B980BDE8F083D8
:108618002146D0E7013880B2E8E70028F3D00138D6
:1086280080B2DFE70E20F1E70220EFE7981500207F
:1086380030B50546144685B0AAB1032913D802D12E
:108648005AF01EFC014602AB00930A4647F6FF7338
:108658002846B4F90010FFF78FFF10B9BDF80C30A9
:10866800238005B030BD2120FBE710B5084C20461B
:108678005AF034FC20B994E80700064B83E8070059
:10868800BDE8104001214FF0FF305AF029BC00BF6F
:10869800748C06085416002010B504460A215AF0B6
:1086A800FDFB4FF4E16120465AF008FC002010BDA4
:1086B800FF207047004870470080FFFF5AF0B5BDA3
:1086C80010B5044650B150238065C36518445FF067
:1086D80062FA2066B0FA80F0400910BD0120FCE77C
:1086E800EEE770B55BF00EFE01280FD8154D95F832
:1086F8002C3143B905F1C800FFF7E2FF044618B969
:10870800012385F82C310024204670BD5FF039F92B
:10871800051E14DB0B4E96F82C3143B906F1C80040
:10872800FFF7CEFF044618B9012386F82C31002440
:1087380028465FF053F90028B8BF0224E4E70D2467
:10874800E2E700BF9815002070B5144D144E95F857
:108758002D3103F0FF04E3B95BF0D4FD012802D901
:108768005FF00FF9044695F82D315BB9D5F88431DF
:108778000C4843F00103C5F8843173689847012316
:1087880085F82D315BF0BEFD012802D920465FF047
:1087980025F9B3680348BDE87040184798150020CC
:1087A800E46F0020C8160020044890F82D3123B14A
:1087B800034B00F59870DB68184770479815002040
:1087C800E46F00202DE9F04FA7B0CDE902218046E3
:1087D8001D4604460822319F28FA02F383EA08035B
:1087E8009E0702F1080218BF9B00202A1C44F3D1FF
:1087F800774BE4B293F8943104F5062404F55064F9
:10880800002B35D10CF09AFF814600286BD1014628
:10881800402206A855F078FC4022494616A855F093
:1088280073FC6C4E06F10F0A102206A93346CDE9F7
:1088380000A969480BF0C4FD0022834606A95A45E1
:108848003ED101231022CDE900A36348334616A97F
:108858000BF0B6FD002283460DF1580A5A4547D160
:108868005E4B10369E42DDD10122594B83F894218C
:108878004FF480790026DFF858B1A4F50623A3F554
:10888800506252090BEB8202D06804F01F01C84005
:10889800C00745D4D26ACA40D20733D5A3F6FF43EE
:1088A800DBB2002E08BF264603F50624B9F10109FC
:1088B80004F55064E1D1029B33B32EB334462BE068
:1088C80051F8040B05920491FEF7ECF9DDE9041266
:1088D80001300BD100223E4B83F894213C4B93F896
:1088E8009431002BC4D16FF091000FE00132A6E75C
:1088F8005AF8040B0492FEF7F5F90130EED0049A09
:108908000132ABE7029B23B96FF08B0027B0BDE8BB
:10891800F08F002E18BF3446329B00201C60F5E70C
:10892800309B13B10023309A13600FB100233B60D2
:108938004FF0100A00232A4621462748CDF800A008
:108948000BF090FE002831D1309A254BBAB92A682D
:108958009A4205D0214620480CF064FB0028D3D168
:10896800D5E9022303998B4208BF424527D0A4F5D5
:108978000624A4F6FF44E4B204F5062496E7309AE8
:10898800C2F800A02A689A42E4D1002FE8D03B46FA
:108998002146114816AA0BF0ADFE38B9309A3B684B
:1089A800126893429FD39B1A3B60D9E70D4B9842BC
:1089B800D0D06328CED00C4B9842D1D093E7029BFD
:1089C800002BA9D06B68012BA6D16FF084009DE71E
:1089D80098150020006D0800580E0020006E080051
:1089E800105D175EFFDF00F0FEDF00F02DE9F04FAD
:1089F80087B08246894698461646DDF840B02AB1C7
:108A0800002B56D040F26C739A4255D8BBF1010F37
:108A180055D8002406F11007394601200594FFF7C0
:108A280028F8054600284DD021463A4655F06CFBFB
:108A3800FFF78AFE05ABCDE9014300942B460122DE
:108A480050464946FFF7BEFE044690B110F18C0F20
:108A580008BF6FF08D043A460021284655F054FBB4
:108A68002846FEF708FFFFF79FFE204607B0BDE83F
:108A7800F08F164BC5E902A92B60C5F804B02EB1DA
:108A88003246414605F110005BF007F8059E3B466B
:108A98002A4631460E480CF03BFA38B93046FEF704
:108AA80001F9013008BF6FF08604D4E76FF0910434
:108AB800D1E76FF08604D8E76FF09104D5E76FF03F
:108AC8008504D2E76FF08C04CFE700BF105D175E16
:108AD800580E0020F0B500270C4606468DB0002140
:108AE800154608A8102255F00FFBCDE90677FFF7C9
:108AF8002BFE05AB029307AB019306AB214600930F
:108B08003A46304608ABFFF75DFE044620B1FFF752
:108B18004BFE20460DB0F0BD099B6B60079B2B6098
:108B2800F5E770B500260C4605468CB010220021EA
:108B380008A855F0E9FACDE90666FFF705FE05AB8A
:108B4800029307AB019306AB2146009332462846B1
:108B580008ABFFF737FE044618BB099B012B25D04D
:108B6800059D154829460CF05DFA10BBA5F50623AE
:108B7800A3F55063B3F5807F05F01F000FD85B099C
:108B8800082B0CD001210D4A814002EB8303DA68DF
:108B980028464A40DA60FEF7A5F8013001D16FF0A7
:108BA8008604FFF701FE20460CB070BD6FF0840408
:108BB800F7E76FF09104F4E7580E002098150020AD
:108BC8002DE9F0410D4614461E46C4B010B96FF0A9
:108BD80086000BE00029FAD0002AF8D0038803F4B5
:108BE8004F42B2F5824F04D06FF0850044B0BDE823
:108BF800F081DAB2122AF7D123F0FF03B3F5E24F7E
:108C080027D143883360FBB9E3003360B3F5807F35
:108C1800EAD10023184642492E19214411F8014D82
:108C280016F8012D1043121B0CBF4FF0FF3400241F
:108C3800B54203EA040343EA0203EFD10028C6D091
:108C4800002BC4DA0020D1E7DA1DB4EBD20FDDD057
:108C5800BDE7B3F5824F60D10B78042BB7D128223A
:108C6800002118A855F050FA18A85FF04DF80746EB
:108C780000284FD101468422229023A855F044FAB7
:108C880001232022394610A88DF8883055F03CFA87
:108C980020224FF08808013C3946013515940DEB28
:108CA8000200E4001495640855F02EFA22AD202243
:108CB800394668460C95CDF8348055F025FAE02CF5
:108CC800CDE90458346003D0B4F5807F7FF47FAFDA
:108CD800144B0734109308934FF4005312934FF436
:108CE8008043E4080A9310AA6B46640008A918A8F0
:108CF800019412F01CFA33680733DB085A0033B1C9
:108D08000021531E013B297005F10105FAD2002804
:108D180098D05CE76FF0920068E76FF0960065E71F
:108D2800808C0608200000802DE9F04117460022BB
:108D38001C4643688CB01B0A80460D46009204D03E
:108D4800012B56D06FF08B008EE0008820F0FF03D7
:108D5800B3F5824F15D1B8F802200732D208009235
:108D6800FDF7ECFF002800F0E0800B78042B05D11C
:108D7800013FB7EB420F05F1010503D06FF0860004
:108D880072E00097009E224631464046FDF7F9FF03
:108D9800002869D10337C4E9030527F00307676191
:108DA800002E00F0A4802022002101A855F0ACF983
:108DB8003146404601AAFDF7E4FF002840F09780BD
:108DC8002168019D039A8D42A36840F090806168F4
:108DD800029D8D4240F08B809A4240F08880A369C2
:108DE800079A9A4240F08380E369089A9A423BD0F6
:108DF8007DE0032FC2D90B78012B40F09980497888
:108E080000294BD0F73908299CD801A353F821F041
:108E1800818E00083D8E00084D8D0008778E000871
:108E28004D8D00089B8E00084D8D00088B8E000824
:108E3800938E00084FF41056F8253F4F1C2200214E
:108E480002A855F061F903230197CDE9043503968B
:108E580001AA09AD134603CBAB42206061601A46F4
:108E680004F10804F6D100200CB0BDE8F081102709
:108E78004FF08076FA25E1E720274FF00076F725B6
:108E8800DCE7FE252C4F2D4ED8E7FF252A4F2C4E28
:108E9800D4E74FF41056FC25274FCFE72B2F7FF64A
:108EA8006DAF2022204655F02FF905F110032361FC
:108EB800AB070DD001AB05F128061A46286869688A
:108EC800083503C2B5421346F7D1286801AD1060D2
:108ED8006B68103F2360AB6869466360EB682046A7
:108EE800A36001236761E36010F0B6FE28B1202279
:108EF8000021204655F008F940E7B8F80030009EF8
:108F080003F44F42B2F5824F0DD1DAB2122A0AD1D8
:108F180023F0FF03B3F5824F05D173001C339F4242
:108F2800BFF43EAFE3E73346F8E76FF085009BE711
:108F38006FF0910098E700BF200000800044000215
:108F4800004400032DE9F04F894616469846054629
:108F5800ABB080B179B172B14288D31D072B4FEA0B
:108F6800D30700F0D580038803F4E043B3F5805FAE
:108F780004D1520709D06FF086041AE0B3F5005FF8
:108F8800F7D0B3F5804F00F0C3802022002118A845
:108F980055F0BAF83946284618AAFDF7F2FE0446F5
:108FA80038B96B681B0A08D0012B00F091806FF06C
:108FB8008B0420462BB0BDE8F08FBE42C0F0AB80DA
:108FC8004A463346CDE91C230021282220A855F023
:108FD8009BF820A85EF098FE002876D14FF0007329
:108FE8002290CDE92030289015A918A810F0EAFEA3
:108FF800002860D1159920A85EF08DFE1A9BDB042D
:1090080043D5189B002B58DA4FF0010B1F9C69467B
:10901800D4F800A0636820A8CDF804B00093CDF878
:1090280008A010F0E5FFA36803A920A8CDF810B0A8
:109038000393CDF814A010F0DBFFE36806A920A87D
:10904800CDF81CB00693CDF820A010F0D1FF23690D
:1090580009A920A8CDF828B00993CDF82CA010F0C4
:10906800C7FF63690CA920A8CDF834B00C93CDF8DC
:1090780038A010F0BDFFA3690FA920A8CDF840B013
:109088000F93CDF844A010F0B3FF12A918A810F060
:1090980072FF80B912A920A810F0AAFF15A918A874
:1090A80010F080FF38B920A815A95EF03DFE20A871
:1090B8005CF09EFEA8B1482827D06FF0920420A843
:1090C8005EF022FE00283FF474AF6FF0920470E760
:1090D80007F12C039E421ED309F1100207F11C036D
:1090E80070E76B681B0A012B06D0424639462846B2
:1090F800FDF732FE0446E2E73246494618A8FDF776
:10910800BCFF04460028F0D0D9E76FF08504D6E705
:109118006FF085044DE76FF08C044AE72DE9F04FB6
:10912800A5B01546DDE92EAB884699460746309A24
:10913800002800F0D780002B00F0D480BAF1000F8F
:1091480000F0D080002900F0CD80002D00F0CA800A
:1091580000230688CBF8003006F44F41EB00B1F548
:10916800824F136052D1F1B212290ED126F0FF01BD
:10917800B1F5824F02BF083B5B0813601368B3F573
:10918800047F04BF40F20923136000232A4600939A
:1091980041466B463846FFF713FD044690BB009CDA
:1091A80030460734E408FDF7C9FD10B1013D08F168
:1091B80001082022002112A8009454F0A5FF21469E
:1091C800384612AAFDF7DDFD0446D8B90AAE0DF1FE
:1091D800480CBCE80F000FC69CE80F0086E80F009B
:1091E800EB1C23F00303282221461AA80F93CDE98C
:1091F8000D4854F089FF7B681B0A09D0012B15D054
:109208006FF08B04204625B0BDE8F08F2C46D0E7E0
:1092180055456AD84A4653461AA8CDE916235EF042
:1092280073FD034658B16FF09204EBE705F12C0388
:109238009A455AD309F1100205F11C03ECE7012203
:1092480012A90AA810F065FD70B9159B013B012B06
:109258000AD84FF080731C90CDE91A30229007A9E4
:1092680012A810F0AFFD38B16FF092041AA85EF0A2
:109278004BFD0028C6D0D6E707991AA85EF04BFD2B
:1092880001A90AA810F08EFE0028EDD101A91AA89C
:1092980010F0AEFE04A912A810F06DFE0028E3D16C
:1092A80004A91AA810F0A4FE07A912A810F07AFEC3
:1092B8000028D9D11AA807A95EF036FD1AA85CF0D3
:1092C80097FD0028D0D15246494612A8FDF7D5FE91
:1092D8000446002896D15A4629463846FDF73CFDF3
:1092E8000446C3E76FF086048CE76FF08C0489E7C7
:1092F8002DE9F04FB7B0054688469146002128224F
:109308002CA81E4654F000FF2CA85EF0FDFC28B1E6
:109318006FF09204204637B0BDE8F08F2B68704A92
:1093280023F47E13934240F0D8806A6BB3181B096C
:10933800B3EB121F02F00F0700F0BD80694B2E90AF
:10934800CDE92C30349029A9404610F03BFD044665
:10935800002840F0A98006EB070B29992CA82BF0D0
:109368000F0A5EF0D8FC51462CA85EF0D4FC4046AB
:1093780002A910F000FE0446002840F0958002A9DA
:109388002CA810F035FE404605A910F00BFE044647
:10939800002840F089804FF0010805A92CA810F09A
:1093A80027FE2B1D1A93504BCDF86C801AAA1C93DC
:1093B80008AB07CA83E8070019462CA810F018FE66
:1093C80005F1140347F00052AAEB07071D930DF1AE
:1093D8002C0CCDF8788047F000571F921DAA07CAB9
:1093E8008CE80700CDF8809020AACDF884802297D9
:1093F8000EAF07CA87E807000D9A614622F00052AF
:109408002CA801930D9210F0F3FD39462CA810F00A
:10941800EFFDAAF1100242F000522394324BCDF82E
:10942800908011AF259223AA07CA87E8070005F1A3
:109438002402269214ACCDF89C8026AA289307CA49
:1094480084E80700139A394642F080421392139A2F
:109458002CA822F0005213925EF066FC21462CA83C
:109468005EF062FC204B2A1D299217ACCDF8A8802B
:109478002B9329AB93E8070084E8070021462CA822
:109488005EF052FC2CA85CF0B3FC0446019BAAEBEE
:109498000B0131441846ABEB0A0249445AF0FDFA75
:1094A8006B6B33446B6384B1212C14BF6FF092044F
:1094B8006FF086040AE005F1140032464946384444
:1094C8005AF0EBFA6B6B33446B6300242CA85EF004
:1094D8001BFC00283FF41EAF1AE76FF0880419E759
:1094E8000002C00303020004100000202DE9F04F21
:1094F800AFB0054624A88B4691461E465EF004FC94
:10950800804628B16FF0920420462FB0BDE8F08F56
:109518002B68102E28BF102613F47C1FC3F30542B6
:1095280002D0964228BF1646594A23F47E13934226
:1095380040F0AB802822002124A854F0E5FD002348
:10954800CDE92033CDE922336B6B05F1040A0F2BEB
:109558007CD800234F4A58461DA9CDE924232693D9
:109568002C9310F02FFC044600287CD11D9924A8C8
:109578005EF0D1FB6F6B24A80F2F8ABF07F00F0195
:10958800394610315EF0C7FB584602A910F0F3FCCB
:109598000446002867D102A924A810F029FD5846DE
:1095A80005A910F0FFFC044600285CD105A924A8F1
:1095B80010F01EFD0123384ACDF850A00DF1200C03
:1095C8001593169214AA07CA8CE8070007F00F0231
:1095D800143542F0005217950BAC1893199217AA3C
:1095E80007CA84E807001A951B9347F000531C9399
:1095F8001AAA0EAB0F2F07CA83E8070043D90A9BA4
:10960800614623F0005324A80A9310F0F1FC214688
:1096180024A810F0EDFC012320AD1D951E931E4BD0
:109628001DAA1F9311AB07CA83E80700194624A88F
:109638005EF07AFB24A85CF0DBFB044698B932465E
:10964800294648465AF029FAB04612E001225946FE
:10965800CDF800A005F1240324A83CF0DDFF044662
:1096680000283FF476AF212C14BF6FF092046FF0FE
:109678008604389B24A8C3F800805EF045FB0028C8
:109688003FF442AF3EE71946C2E76FF088043BE774
:109698000002C00300000404100000200023C3607F
:1096A80001F13803036120230A6843618B6D0B497C
:1096B80022F47E128A42436003D001F580718A4207
:1096C80008D1102B01D0182B02D10360002070475D
:1096D800202BFAD06FF08800704700BF0001C0034C
:1096E80010B50A46044620B119B1044B00211B6984
:1096F80098472046BDE81040FEF7BDB8E46F00204B
:1097080070B50F4C0F4D04F5CC70AB68984794F8C2
:10971800FD61EB6804F5CC709847AB6804F50270FE
:109728009847022E09D194F8FC41E31F5C425C4142
:10973800EB6805489847204670BD0024F8E700BF4D
:1097480098150020E46F0020A017002041F205239F
:1097580098421AD8B0F5905F09D241F201039842B5
:109768000CD0B0F5885F09D06FF0850070472923C9
:10977800A0F5905080B2C340DB07F5D511F0070F74
:109788000CBF00206FF086007047B0F5105FEBD17A
:1097980021F04003802B06D0B1F5807F0CBF00205C
:1097A8006FF086007047002070470F4B0340B3F1FD
:1097B800607F06D1B1F5885F14BF6FF08600002086
:1097C8007047B3F1707F0BD101F4E043B3F5005F4C
:1097D80006D111F4E06F0CBF6FF0860000207047CF
:1097E8006FF08600704700BF0000C07F8A4270B5E6
:1097F80005460E4600F0AC80574B22F48071994222
:1098080006D0564922F47F7323F003038B4228D1F4
:10981800534B26F0FF0199420FD116F0FF000BD0F1
:10982800504B40F00070984240F0948082EA060065
:10983800FF288CBF0020012070BD4B4B9942ECD013
:10984800A3F588539942E8D026F4FF7323F0010367
:10985800B3F1062FE1D045488142DED03F498B4223
:10986800DBD006F0FE43B3F1A06F12D102F0FE4345
:10987800B3F1A06F6ED182EA060333F47E1369D187
:1098880016F40040D8D0C6F30540C2F30542904212
:10989800CFE7B3F1407F47D102F0FE43B3F1407FF9
:1098A80058D182EA060333F47E1453D12946304650
:1098B800FFF77BFF00284DD12D4912F47C1301EAF4
:1098C800020106D0B1F1707FC2F305441BD00346F4
:1098D8000FE0B1F1707F1CD105F4E041B1F5005FF4
:1098E80017D10124C5F302239C400123C5F30225A7
:1098F800AB4016F47C1FC6F305410CD1A34214BF3C
:109908000020012098E705F4E043B3F5005FDED1BD
:10991800EBE71C46EDE712F47C1F01D1994217D002
:10992800330489D5A14284E7B3F1106F12D126F030
:109938001F6020F4702068B902F0FE43B3F1106F85
:109948007FF47AAF0B48104040F01060B042D6E781
:10995800012071E700206FE70002000600040006FE
:1099680000030006FF0000020013000600090006BD
:109978000000C07F0000FFF670B5046A05460E4679
:109988003CB90120FEF775F8286228B120466E62BE
:1099980070BD6FF08A00FBE76FF08C00F8E791422A
:1099A800F8B506460C4600F01D8121F0FF00B249CB
:1099B80088420CD122F0FF0383423CD114F0FF030C
:1099C80034D0AE4943F000738B422FD10AE1AC4D3D
:1099D800A84216D0AB4B98420DD024F4FF7323F065
:1099E8000103B3F1062F06D0A74FB84203D0A7F55D
:1099F800A067BB4267D122F0FF038B422DD1002222
:109A0800F0E022F0FF038B42F9D0834227D184EAA9
:109A18000203FF2BF3D89A4B984200F0FE80994935
:109A2800884240F04B8114F0FF010FD112F0FF0380
:109A380040F0E1801EE192498B4210D184EA020194
:109A4800FF29DCD814F0FF0100F0DC808B4841F0DE
:109A58000071814240F0EA80C4E0AB42D6E7894D0C
:109A6800AB4200F09B8022F4FF7121F00101B1F1BB
:109A7800062F06D0844FBB424AD005F50075A9428F
:109A880021D184EA0201FF29B9D87B4D24F48751FA
:109A980021F01F01A94240F00D8114F0FF01D5D13A
:109AA80078498B4200F0DD8022F4FF7121F001013A
:109AB800B1F1062F00F0D5807348834200F0D180C1
:109AC800724B9942B2D004F0FE45B5F1A06F2AD18D
:109AD80002F0FE43B3F1A06F91D184EA020333F49C
:109AE8007E138CD12504C4F30543C2F3054002F468
:109AF800004140F1F180002900F0EA80834238BF3C
:109B0800034624F47E1242EA034242F4004269E02A
:109B180084EA0201FF2940F2998004F0FE45B5F17C
:109B2800A06F3FF46CAFB5F1407F7FF468AF02F0EF
:109B3800FE43B3F1407F7FF462AF84EA020333F45B
:109B48007E157FF45CAF31462046FFF72EFE0028D5
:109B58007FF455AF14F47C1300F0C680C4F30543BA
:109B680012F47C1504F4004C02F4004700F00B8159
:109B7800C2F30540BCF1000F00F04E810546002FEE
:109B880000F046819D4238BF1D462D0405F47C1522
:109B980024F47E142C4344F4004223E084EA0201B6
:109BA800FF29BAD8344988421ED001F5805188422D
:109BB8000FD0984240F0828014F0FF017FF446AF46
:109BC80030498B424DD112F0FF0314D104F0FE4509
:109BD800A9E714F0FF033FF429AF284943F00073C5
:109BE8008B4204D11046F8BD14F0FF03F5D112F0F2
:109BF800FF033FF404AF214943F000738B427FF425
:109C080062AF08E012F0FF02ECD01C4B42F0007289
:109C18009A427FF4F4AE2246E4E714F0FF030AD038
:109C2800164943F000738B42DCD0034614498B423B
:109C38007FF436AF15E012F0FF02D3D00F4B42F09D
:109C4800007199420CBF22460022CBE70A4988429C
:109C58001ED114F0FF0304D0084943F000738B426F
:109C6800C0D012F0FF03C6D104F0FE45B5F1A06FD5
:109C78007FF459AF1A46B5E700030006FF0000025B
:109C88000013000600020006000900060004000692
:109C980063498842DDD0A8428ED0624D24F47F719A
:109CA80021F00301A94201D09842BFD114F0FF016D
:109CB800BCD0CBE65C4988423FF4EFAE594D24F462
:109CC8007F7121F00301A942F0D058498842ECE79E
:109CD800834288BF002285E700293FF490AE834283
:109CE8002CBF224600227DE751492140B1F1607F17
:109CF80038D15048E1B241F00071814241D001F1C0
:109D08007E4104390F293FF62BAF01A050F821F00E
:109D18005D9D00085D9D0008699B00088B9D0008FB
:109D2800599D0008619D0008659D0008699D00080F
:109D3800599D0008619D0008699B0008699B0008FF
:109D4800599D0008619D0008659D0008699D0008EF
:109D58001C2305E7142303E7202301E73023FFE64C
:109D68004023FDE6B1F1707F7FF4FAAE06F4E041DE
:109D7800B1F5005F7FF4F4AE0123C6F302218B40F6
:109D8800EEE61023ECE62A491140B1F1607F1ED1BE
:109D98002848D1B241F00071814237D001F17E41AB
:109DA80004390F2916D8DFE801F00A0A1531080C22
:109DB8000E10080C1515080C0E101C20DAE61420DD
:109DC800D8E62020D6E63020D4E64020D2E6B1F10D
:109DD800707F11D03846BCF1000F7FF4D0AE002F51
:109DE8007FF419AF83427FF40AAE1B0403F47C139B
:109DF80024F47E121A43F5E606F4E041B1F5005F5B
:109E0800E8D10120C6F30226B040B3E61020B1E63F
:109E1800AB4288BF0022E5E6002FE3D05FE700BF32
:109E280000130006000400060002000600090006F0
:109E38000000C07F030000022DE9F843884617465A
:109E48001E460FF02FFC044620BBD8F80050B5F88A
:109E5800009009F4E043B3F5804FAB6808BF27F0E2
:109E6800010737EA03030DD1A6B132464846E9682F
:109E7800FFF7BCFC074668B9324648462969FFF730
:109E8800B5FC50B900232846C8F800300FF09CFDF7
:109E98006FF084042046BDE8F8833C46FAE738B5FD
:109EA8000446006A10B1616AFFF71AFC237E012B91
:109EB8000FD0023B012B0FD8E369012B0CBF002503
:109EC8006FF0960528220021204654F01DF92846F7
:109ED80038BDE369002BF1E76FF09605F2E708B1AA
:109EE8000FF016BD704773B5054608460C460FF0CF
:109EF8000FFA002328461A4601A9FFF79DFF68B903
:109F0800019E35460FCD0FC495E8030084E8030091
:109F1800304602B0BDE870400FF056BD02B070BDCB
:109F28002DE9F0479A460023A6B089469046CAF81C
:109F38000030012201A9FFF77FFF054648BB019CBD
:109F48006368D4E908761B0A07D0012B41D0204664
:109F58000FF03AFD6FF086051BE0238803F4E0421A
:109F6800B2F5805F19D0B2F5005F16D044F2010255
:109F780023F44051914210D003F44F43B3F5824F7C
:109F88000BD0B3F5844F08D020460FF01DFD6FF0BD
:109F98008505284626B0BDE8F087464505D9204600
:109FA8000FF012FD6FF08905F3E73246394648464F
:109FB80059F073FD0021A8EB060209EB060054F0E6
:109FC800A3F82046CAF8006026B0BDE8F0470FF0B5
:109FD800FBBC002FBBD0002EB9D0B9F1000FB6D012
:109FE800A368DB0705D420460FF0EEFC6FF084056C
:109FF800CFE7014620220CA854F086F832463946AD
:10A0080020460CABFEF790FE054618B120460FF02F
:10A01800DBFCBEE714AE0CAF0FCF0FC697E80F00FE
:10A0280086E80F0002A914A8268802950FF03CFEC6
:10A0380005463046FCF782FE012804BF042309F8D0
:10A04800013B4FF0000308BF08F1FF38CDE917398D
:10A0580008F1030323F00303064619932DB12046A4
:10A068000FF0B2FC6FF0920593E7029FB84596D3C4
:10A07800282229461CA854F047F81CA85DF044FE85
:10A088000028ECD12B46012214A90CA80FF041FEA0
:10A0980070B90F9B013B012B0AD84FF0817309A9B6
:10A0A8000CA8CDE91C351E9524950FF08BFE70B1D8
:10A0B8006FF092061CA85DF027FE0028CFD120463D
:10A0C8000FF082FC0546002E3FF463AFCAE70999FA
:10A0D8001CA85DF020FE03A90CA80FF04CFF002877
:10A0E800E6D103A91CA80FF083FF06A90CA80FF05E
:10A0F80059FF0028DCD106A91CA80FF079FF09A98F
:10A1080014A80FF04FFF0028D2D11CA809A95DF0B0
:10A118000BFE1CA85BF06CFE0028C9D13E44CAF8AF
:10A1280000600026C6E7F8B504460D46EFF3118631
:10A13800302383F3118890F89630A1B173B990F861
:10A1480098305BB1EFF3108572B601205DF066FAC6
:10A1580028465DF080FC012384F8963086F3118848
:10A16800BFF36F8FF8BD002BF8D0EFF3108772B6EE
:10A1780008465DF053FA38465DF06DFC84F8965059
:10A18800ECE790F894302DE9F74F04460D46164653
:10A19800002B40F0A1805AF0B5F80228074618D0E5
:10A1A80094F89970EFF31188302383F3118894F8A9
:10A1B8009530B3B988F31188BFF36F8F4FF030082B
:10A1C8002E44AE421ED1236E012120469B6898473B
:10A1D80067E0D4F81C015DF075F80028E0D0384637
:10A1E80068E094F89830002BE4D0002384F8953088
:10A1F800EFF3108972B601205DF010FA48465DF061
:10A208002AFCD7E794F89A30002B38D02046FDF77F
:10A21800C3F8A0BBEFF3118988F31188207D09F0FA
:10A22800F1FC2046FDF788F8D4F848B000F1FF3A71
:10A23800DA4538BFE36C207D3CBF03F1FF330BEBFD
:10A24800030A94F85430019309F0FEFC019B93B97A
:10A258005346D4F89C108B420BD013F80129112ACD
:10A2680001D0132A29D1A2F111035A425A4184F884
:10A27800A020C4F89CA089F31188BFF36F8F94F8CD
:10A28800A030002B9DD0236EA9462A785B68DFB9E1
:10A29800236E20465B6899F800100135984700281E
:10A2A8008FD05AF02FF8022803D1D4F81C0159F0A6
:10A2B800B5FF002003B0BDE8F08F9B4582BFE36C7B
:10A2C80003F1FF335B44C6E70A2AE1D10D2120469A
:10A2D80098470028DCD0E4E70E20EBE7034641600E
:10A2E800EFF3108072B6044AD2F888101960C2F8E9
:10A2F80088305DF0B0BB00BF9815002030B5184C11
:10A3080085B0D4F86C22E2B901234FF06041C4F85B
:10A318006C32D1F8003E684643F48073C1F8003EC1
:10A3280004F51D730293502303930E4BCDE90032BD
:10A338005DF031FC0C49C4F8700204F53170FFF788
:10A34800CDFF002509480A4BC4F8CC025C30C4F89C
:10A35800D032C4F8D8523FF073FD284605B030BD5E
:10A36800981500206B880608F86F00200818002050
:10A37800896E00080246EFF3108072B6074951F85B
:10A38800883F2BB19A4205D113680B6000231360F4
:10A398005DF061BB19461B68F3E700BF9815002004
:10A3A80038B50446D0F870311D68AB6C5906FCD539
:10A3B800002394F879111A4694F878010BF0FCFE02
:10A3C800002394F87B111A4694F87A010BF0F4FEF6
:10A3D80094F88031DA0707D5002394F87D111A46DE
:10A3E80094F87C010BF0E8FE94F880319B0707D5C0
:10A3F800002394F87F111A4694F87E010BF0DCFED6
:10A40800012205F500531A65042228461A650BF047
:10A418009DFE0021D4F874015CF086FF0C4904F518
:10A42800C2700A4652F8503F3BB198420CD1D4F85A
:10A43800843113600023C4F884310B6D13B90548C7
:10A44800FFF798FF002038BD1A461B68ECE700BFED
:10A4580098150020741800200246EFF3108072B699
:10A468000E4991F8E532FF2B02D1A2B15DF0F3BAA3
:10A478001BB9002AFAD0012203E0002A0CBFFF22F0
:10A4880001221344DBB281F8E532B3FA83F35B09A6
:10A4980081F8E632EAE71A46F3E700BF981500208C
:10A4A8002DE9F0410468054694F89430002B7DD1DD
:10A4B800EFF31182302181F31188C4E9163382F356
:10A4C8001188BFF36F8F59F01DFF022807D1D4F808
:10A4D8001C015CF0F7FED4F8A4005CF0F3FE0CF06D
:10A4E80097F9854202D100203FF0AAFC236E93F928
:10A4F8001060304608F0B1FF30460CF077F9236E53
:10A5080093F91160304608F0A8FF30460CF06EF958
:10A5180094F8A1301BB1D4F8F8005DF029FED4F806
:10A52800A400244F5DF00CFED4F81C015DF008FE79
:10A538003B78207D43B1072806D81F4B03EB001357
:10A548001B7B0BB10BF0C4FE207D3FF013FDEFF336
:10A558001188302383F311880023174A167BAEB97C
:10A568000133082B02F11002F8D123200CF03EF938
:10A57800FF22124B31465E6520209A625E600BF026
:10A588002FFA314621200BF02BFA3E7088F3118800
:10A59800BFF36F8F0023C5E90033C5E90533EB60CE
:10A5A800236E2046BDE8F041DB6818470F20BDE860
:10A5B800F08100BF980D00207009002000000450B1
:10A5C8002DE9F843EFF31187302383F31188384ED0
:10A5D80096F81053002D64D13648C6F8B050B560CF
:10A5E80075655DF03AFDBFF34F8F334C0BF046FFB6
:10A5F8006368012B3AD0E5605CF054FD00250F221A
:10A6080001242E4BDFF8B080DFF8C090C8F848501E
:10A618005A641A640BF032FFC9F80440C8F81040B5
:10A628005AF072FB4FF40022254BC8F818505320FB
:10A63800C3F888210BF0D2FFC9F84440EFF3118822
:10A64800302383F311884FF4E0600BF0DFF9024602
:10A6580088F31188BFF36F8F1A4B1860B8B987F366
:10A668001188BFF36F8F2320BDE8F883D4F80480E6
:10A67800B8F1010F02D00BF001FFBCE763685AF094
:10A6880043FB022323610D4BC3F80480F3E72B46F9
:10A6980040F2E7310C4852F00BFC86F81043C6F83C
:10A6A800140387F31188BFF36F8F0020DCE700BF26
:10A6B80098150020A08C060800C00A5000E00A5037
:10A6C80000E100E0D00E002018FCFFFF00D00A5087
:10A6D80080B5AF4D90B095F81C33BBB90221AD4899
:10A6E800AD4AC5F88430121AC5E91802013AD208F1
:10A6F800C5E91D0085F87C10FDF7DAF942800822CB
:10A708000123C5E91A222B6785F81C33EFF311835F
:10A71800302282F3118895F81D23002A40F0CE8557
:10A72800012285F81D2383F31188BFF36F8F6FF023
:10A73800040420460134052164B20BF03BFF5D2C74
:10A74800F7D14FF00043954E072273664AF6CD3392
:10A75800934C0B20676C2364924BDA630BF0C2FCBA
:10A768006368012023F4F87343F48073636040F254
:10A778000913A36040F2031323613FF07DFBFF0739
:10A7880048BF894B4FF0800048BF2364874B5F6EFA
:10A798004FF0004373664AF6CD33666C23640BF0C2
:10A7A800A1FC236AF60723F00F0343F00C0323628E
:10A7B80048BF7D4B7E4848BF2364002FA2BF4FF09F
:10A7C80000427C4B5A665DF048FC7B4AD2F84C311B
:10A7D80013F4802300F078854FF07E6292F89C3065
:10A7E80092F99C20002AB8BF3F234FF400016B4A1E
:10A7F800022051664FF4D15102F5B83251626F49C7
:10A808004F2B486028BF4F23012001F58051DBB250
:10A818004860116911F48031FBD143F480735361AE
:10A8280040F2014393603223654E51603380624B9E
:10A83800D3F84C21140300F14B85D3F85041E4B20E
:10A84800604BDFF8AC8193F900705F4B2744C8F880
:10A858000030564B87F308071B6F03F00703032BE1
:10A8680001D159F01BFB80200BF03AFA03284BD09A
:10A878004FF48012494B4FF0A0615A6645F60E031B
:10A88800524AC2F88030524B99624FF4803103F536
:10A8980080539962936DD803FCD4936D5900FCD40E
:10A8A8004C4B1361936903F0004343EA074343EABF
:10A8B800042343F0407343F03C039361136A23F08D
:10A8C8000F031362916A444B0B4043F48033936245
:10A8D80042493E4A936D31EA0303FBD14FF0807140
:10A8E8003B488162136923F4700343F440131361F6
:10A8F8004FF000434FF480328361394B99629A627A
:10A90800324A936D5B00FCD44FF4C0222A4BD3F833
:10A918009840224B5A6603F598335A68012A00F08A
:10A92800DE8480200BF0DCF905280CD100212D48AD
:10A938000BF04EFB1D4A136F43F4806313674FF40B
:10A948008032164B1A67DFF8AC90274BD9F80070A5
:10A9580024F040749F4202D822483CF049FF234B20
:10A96800DA6812F0060FFBD19A689C60996880201B
:10A978004C4014F4F81F0BBF1A4B9A60C9F800300A
:10A98800B94608BF99460BF0ABF9052844D133E026
:10A99800981500203877002000000820009000500B
:10A9A80000800950004000503254FFFF00800050E2
:10A9B800A08C060800A000500080E00F0010025094
:10A9C800E46F0020CC6F0020C01753020040005AEB
:10A9D8000050005A2008C00BC7FFFEFE030001000C
:10A9E8000060005A00B4C404FFB3C404000001505E
:10A9F800946F0020906F002059F050FA04460AF036
:10AA0800E3FF0128D4BF0121002120460BF0E0FA22
:10AA18000BF02AFB0BF0CCFAB94502D800203CF029
:10AA2800E7FE4FF40022CD4CCD4BCE48D3F8C030D2
:10AA380062664FF0B44223F0407393605DF00DFB03
:10AA48004FF4800302226366C74B5A609F6817F46D
:10AA58008037FBD1C54C5F625F600BF0E5FA236F6E
:10AA6800384623F0070343F0030323670BF012FB78
:10AA7800236FBA4923F474432367BD4BD3F8FC20F2
:10AA880012F0807200F03284D3F8FC2022F0807239
:10AA9800C3F8FC20D4F8802022F0030242F001021F
:10AAA800C4F88020C1F88070D3F8FC2042F080728E
:10AAB800C3F8FC20AD4B4FF48031D3F82021AD48CA
:10AAC80022F0070242F00202C3F82021D3F828211D
:10AAD80022F0070242F00202C3F82821D3F88021AD
:10AAE80022F0030242F00102C3F88021D3F840218A
:10AAF80022F0030242F00202C3F84021D3F8602199
:10AB080022F0030242F00202C3F86021D3F8402287
:10AB180022F0030242F00202C3F84022D3F80022D6
:10AB280022F0070242F00202C3F80022D3F80822FA
:10AB380022F0070242F00202C3F80822D3F850229A
:10AB480022F0030242F00202C3F85022D3F8702226
:10AB580022F0030242F00102C3F87022D3F8202247
:10AB680022F0070242F00102C3F820227B4A5C6E01
:10AB78005166426AE40322F0010242625CBF7E4AE7
:10AB880051664FF0E0210A6942F004020A61D3F8E5
:10AB9800602222F0070242F00102C3F86022D3F8D3
:10ABA800942222F0070242F00102C3F89422FFF730
:10ABB80007FDEFF3108772B670485DF04EFA95F80E
:10ABC8001E43F4B96E485DF048FA6E4B6E4ADA617E
:10ABD8000122C3F844214FF4807203F5EA239A64F2
:10ABE8006A4BC5F8E8421B68C5F88840C5F82033A9
:10ABF800674B5A6F42F001025A67DA6E22F0300250
:10AC0800DA664FF00009484685F824933CF0F0FDD9
:10AC1800B37FD5F820438BB15D496A684B6F23F445
:10AC280040734B67A3015B4903F5742303F23F2389
:10AC3800B3FBF1F313446B6086F81E904FF4801158
:10AC48004A4BD3F80021454A51664FF4003151660A
:10AC58001A6F02F00702C5F89020196F032A01F451
:10AC68007441C5F8A8104C49896901F00200C1F384
:10AC7800400185F88D100CD0D3F8202102F007028E
:10AC8800022A06D0D3F8282102F00702022A40F04F
:10AC9800398301232B70002840F04183D5F82033F5
:10ACA8003C49C3EB431202F5742202F23F22B2FB85
:10ACB800F1F2686802446A604FF4C872534303F5BE
:10ACC800742303F23F23B3FBF1F3C5F8EC320123FD
:10ACD800384685F81E335CF0BEFE326A511C08BF48
:10ACE8002B4B4FF4003108BFD3F894204FF050237A
:10ACF80008BF32621967D30700F1438301210C466C
:10AD0800084604FA00F3134001F1010100F03B8307
:10AD1800224B03EB4003B3F89C302149062B0A88E9
:10AD28004888204C40F036834FF20F03984240F099
:10AD38002E83B2F5406F28BF4FF4C0624CF23C330B
:10AD4800A5F826234B800A4A536A43F470235362BA
:10AD5800EFF308834FF0CD3126E000BF009000509C
:10AD68000080E00FA48C06080040025000800050CC
:10AD780000ED00E00000085000A0005070850608B3
:10AD8800A88C060800800350010D0C00D00E00208E
:10AD98000040005040420F0000C00150108C0608CF
:10ADA800E06D002098150020BD4A043B934280F0D6
:10ADB80004830222BB4B1A67FFF702FC18B16A2111
:10ADC800B9485BF0B1F8FDF750FC5CF0C5FD38B947
:10ADD80059F014FA012803D1B44B1A6802B9186063
:10ADE8004FF42F60FCF73DFD0646C4F82803742095
:10ADF800FCF737FD0546C4F82C035020FCF731FD5D
:10AE0800C4F830032020FCF72CFDC4F8340350208C
:10AE1800FCF727FDA64B0021C4F83C334FF42F6301
:10AE2800C4F850337423C4F848333123C4F83803C2
:10AE3800A04AA148C4F84C63C4F84453C4F8543336
:10AE4800C4F84013C4F858135CF017FEC4F8600344
:10AE580018B9772199485BF067F8994B0220C4F834
:10AE680064335023C4F870330023C4F86833D4F82B
:10AE780030339449C4F86C335DF024F8C4F8740393
:10AE880018B983218D485BF04FF88F4B8F48C4F871
:10AE98007833D4F83833C4F880335023C4F8843373
:10AEA8000323C4F87C335CF076FEC4F88803D4F836
:10AEB80088331BB98D2181485BF036F8D4F83433D8
:10AEC8008348C4F89433834BC4F88C332023C4F8E4
:10AED80098330023C4F890335DF054F8C4F89C0309
:10AEE80018B9942175485BF01FF84FF400503FF0F3
:10AEF80063FF4FF40053C4F8A003C4F8A433002838
:10AF080000F05E82D4F8A0331BB9DE2172485BF0F2
:10AF18000BF8D4F8A433D4F8A02323F00103134486
:10AF2800C4E9EB32C4F8A823002A40F05482F8217F
:10AF380069485AF0F9FF4FF4FA60FCF792FC0646AC
:10AF4800C4F8B8037420FCF78CFC0546C4F8BC03AD
:10AF58005020FCF786FC614B0021C4F8C4334FF441
:10AF6800FA63C4F8D8337423C4F8D0333023C4F850
:10AF7800C0035B4A5B48C4F8D463C4F8CC53C4F834
:10AF8800DC33C4F8C813C4F8E0135CF076FD18B9D4
:10AF98006B2155485AF0C8FF544B0220C4F8E833D7
:10AFA8005023C4F8F4330023C4F8EC33D4F8C03386
:10AFB8004F49C4F8F0335CF085FFC4F8F80318B9BA
:10AFC800732149485AF0B0FF01204A495CF07AFFE2
:10AFD800494D28602B685BB148485CF0DCFDC4F83B
:10AFE800FC03D4F8FC631EB928685DF094F82E6061
:10AFF80047F0E0FA424D014650BB1822284653F06C
:10B0080083F820232B703F4B2B6118336B6040F083
:10B018005BF994F8003413B9012384F800343A4AF0
:10B028001168A9B94FF482703CF08EF880B94FF4DA
:10B038008272364B36491A60D4F818332A78002BB6
:10B0480040F0CF816A786B6142F001026A700D604E
:10B058002B6933B1186820B118F0BEFD08B13CF077
:10B0680001F82C4E07AD0FCE0FC50FCE0FC53368B4
:10B0780000212B6007AA28485CF0FFFC274AA0653E
:10B08800137843F0010313705CF066FC0546002852
:10B0980040F0138159F0B2F8012840F00E813FE0EA
:10B0A800080000200040005076880608280C002080
:10B0B80028890608D418002055F90008358906089B
:10B0C800E8890608FC180020048A060810190020E0
:10B0D80024190020158A0608CA8A0608DE8A060886
:10B0E8005C19002031A60108F28A0608AD8B060813
:10B0F80080190020CC8C0608640D0020DC8C060822
:10B10800340D0020EC8C0608780D0020740D00200A
:10B11800B0180020288D0608037100084C0D002087
:10B12800B84B1A68012A40F0C8800222B6491A6052
:10B1380007AA11F8013B02F8013B002BF9D1B34EE5
:10B14800B34806F17402CDE900320296A02207A99D
:10B158005CF0D5FB002800F0AE80DFF80C9358F0C7
:10B16800D7FED9F800A0BAF1000F2CD106F53D782A
:10B1780006F5427740465CF077FB38465CF074FB96
:10B18800A44BC3F80080A44B1F6050230693069B72
:10B19800069B012384F8663706F55B73C4F82037ED
:10B1A8000A23C4F85C37102306F547763046C4F8FE
:10B1B80060375CF01AFF3046984984F86CA7C9F8E4
:10B1C800006058F02DFF58F0B1FED9F80030002B80
:10B1D80071D0934BA0220293743301933523914984
:10B1E8000093914800235CF08AFB002863D05CF050
:10B1F80067FB4FF0FF328D4B1A6001228C4B1A60AF
:10B2080000238C4A136007934FF07F424FF0E023EE
:10B21800C3F81C2DD3F81C3D1B0E8DF817309DF874
:10B2280017309DF817309DF8173013F0800F079BE3
:10B2380040F0DF80082B4FF0E02318BF079D6FF028
:10B24800040018BFC5F107052D0205F4E065C4F830
:10B25800045B0024D3F8202D214642F47F02C3F872
:10B26800202DD3F8202D42F07F42C3F8202DC3F8BB
:10B278001C4D0BF09FF94FF47A726F4B1B6803F269
:10B28800E733B3FBF2F36D4A13604FF0FF32B2FBC2
:10B29800F3F36B4A0A3B136059F0D0FE694B186010
:10B2A800012059F03BFD684B1C6058F021FE58F016
:10B2B80065FF08F063F9654B5B6AFEE783F3118865
:10B2C800BFF36F8FFFF73DBAD2F85021FFF78DBA61
:10B2D8005F4B1C88FF2C88BF8C24FFF7B1BA5D49EF
:10B2E8004A605A689707FCD4FFF71BBBD4F8803034
:10B2F80023F0030343F00103C4F88030C1F8802031
:10B30800FFF7D8BB00222A7000283FF4C7ACD3F857
:10B31800003103F00303581E434243412B704E4B48
:10B32800D3F8003103F00303022B25D0032B26D0DA
:10B33800012B7FF4B3ACD8F80020002A3FF4AEAC60
:10B34800464BDFF82881DB68501EC3F30B0C002343
:10B3580019460CF1010C0CEB8C0CECFB080151F0BC
:10B36800A7FD604300F5742000F23F20B0FBF8F021
:10B378006B681844686091E44FF40042E0E7384A8B
:10B38800DEE70020C4E410297FF4BAACC5E44FF42A
:10B39800C062D3E440F20726B3420BD14FF20F0646
:10B3A800B04207D19A4205D14CF23C32A4F8263378
:10B3B8004A80C8E4A5F82633C5E443F80419F5E43F
:10B3C8004FF4D37127485AF0AFFDD4F8A433002BBB
:10B3D8003FF49BAD96E524F011FF64287FF6A7ADF6
:10B3E800A9E5197891423FF433AE03F114015B6982
:10B3F80025E6013307939DF817305B00DBB28DF823
:10B40800173010E7280C0020C68B06089C1900206E
:10B41800C94D06087C08002078080020CB8B060858
:10B42800A81D0020D08B0608A94A0608700800202D
:10B43800AC0B002074080020D00E0020180F00204C
:10B44800140F00201C0F0020986F0020E46F0020CC
:10B458000001E00F00E001500080005000C00150E2
:10B4680080D54302248A0608940D002040420F002C
:10B4780070477047704708B500200F4A0F4913F00E
:10B4880041F80A2200200E4913F03CF83C22002023
:10B498000C4913F037F81E2200200B4913F032F83C
:10B4A80003220020094913F02DF8BDE808400122C5
:10B4B8000020074913F026B80AC006080EC006087F
:10B4C8001CC0060842C0060868C0060875C0060801
:10B4D80094C0060807B5D0E9023253F822301A782A
:10B4E800292A0ED80849094B31F8121053F822308E
:10B4F800009107490020002B08BF0B46054913F0AF
:10B5080001F803B05DF804FBA820002040DB060822
:10B51800B3C00608B7C006082DE9F34100240C4E55
:10B528000C4DDFF838800C4F56F8043B35F8022BE9
:10B53800002B08BF434600923946224600200134BA
:10B5480012F0E0FF2A2CEFD102B0BDE8F08100BF75
:10B5580040DB0608FC200020B7C00608B3C0060878
:10B568002DE9F34100240C4E0C4DDFF838800C4FC8
:10B5780056F8043B35F8022B002B08BF43460092CF
:10B58800394622460020013412F0BCFF2A2CEFD1A4
:10B5980002B0BDE8F08100BF40DB0608A82000200B
:10B5A800B7C00608B3C006080020014912F0AABFB8
:10B5B800C2C0060807B5064A034692F8A82000202C
:10B5C80000920449044A12F09DFF03B05DF804FBA1
:10B5D800A8200020FBC00608EFC006080120E9E704
:10B5E80070B5D0E902456B1EDBB254F82300032284
:10B5F8001C4958F028FA54F8253004EB85041978CA
:10B6080063681A78A2F10B030F2B05D9164900209D
:10B61800BDE8704012F076BF01290FD1134C91405C
:10B62800236840B90B43124A23600020BDE87040EC
:10B63800104912F067BF23EA0103F4E702290ED18B
:10B6480001230D4903FA02F2D1F8AC3020B91343B3
:10B658000A4AC1F8AC30E8E723EA0203F8E70A46E9
:10B668000749D4E734A9060823C106083871002021
:10B6780039C1060841C10608A820002054C106089F
:10B688005EC1060807B5D0E9023103EB810253F821
:10B6980021300B491B785268012B0A4B08BF0B4617
:10B6A80012684FF000001A600092074A074B0849D9
:10B6B80018BF1346074A12F025FF03B05DF804FBD4
:10B6C800387100205421002079C1060871C106088C
:10B6D80083C10608ECDB060838B50024064D5CF08B
:10B6E80050FB45F824000634542CF8D10020BDE85E
:10B6F8003840024912F006BF582100209DC10608B3
:10B708001FB5044602AA00200DF106013DF074FEA3
:10B718004FF6FF73BDF806209A4206D0082220464D
:10B728000DEB020158F08FF9A8B102AA01200DF122
:10B7380006013DF061FE4FF6FF73BDF806209A4200
:10B748000BD0082220460DEB020158F07CF90028A6
:10B7580014BFFF20012004B010BDFF20FBE7002329
:10B7680007B519466A4611F058FD6846FFF7C8FF45
:10B77800FF28024606D10020064903B05DF804EB15
:10B7880012F0C0BE0020044903B05DF804EB12F0CB
:10B79800B9BE00BFC9C10608D9C106080023F0B563
:10B7A80087B0194602AA11F038FD0025FF244FF68C
:10B7B800FF77EEB2304604AA0DF106013DF01CFEFB
:10B7C800BDF80630BB4211D0082204A90DEB0200D7
:10B7D80058F039F968B93446134B234493F80022DA
:10B7E800013283F8002217E00125E2E7FF2C08BFA9
:10B7F8003446002DF8D0FF2C06D100200B4907B0A5
:10B80800BDE8F04012F07EBE4FF6FD72204602A958
:10B8180012F08AFA012CDFD922460020044907B029
:10B82800BDE8F04012F06EBEA8200020F8C106085E
:10B8380014C20608002310B586B0194602AA11F0F2
:10B84800ECFC02A8FFF75CFF0128044606D9104962
:10B85800002006B0BDE8104012F054BE0D4A024464
:10B8680092F800326BB9204604AA0DF106013DF0AA
:10B87800C3FD4FF6FF72204604A912F055FA064997
:10B88800E6E7013BDBB282F80032002BF7D1EAE7AA
:10B8980033C20608A820002048C2060870B5324CFA
:10B8A800012204F202218EB03048FCF7B8FA94F86D
:10B8B8000222032300202E4912F024FE00242D4EDC
:10B8C8002D4D04F5A030262204A98030FCF7A7FAF4
:10B8D80022463146002014F055FB9DF81020002A1E
:10B8E80039D0BDF81630002001939DF81430234953
:10B8F8000093BDF8123014F045FB00209DF8182085
:10B908001F4914F03FFB00209DF81A201D4914F030
:10B9180039FB00209DF81C201B4914F033FB002044
:10B92800BDF82230BDF81E20184914F02BFBBDF8D5
:10B93800343000200393BDF83030BDF82620029340
:10B948009DF82D30124901939DF82B3000939DF8F6
:10B95800293014F017FB29460020013412F0D2FDDB
:10B96800032CAED10EB070BDA820002023870100A3
:10B9780056C206087DC20608C4A8060884C206087E
:10B9880010340708AB2C0708A6C20608B0C2060880
:10B99800C1C20608F7B50025254E264F12F0D4FB84
:10B9A800ECB284420DD312F0CFFB044612F0E0FB58
:10B9B800224603460020204903B0BDE8F04012F0BB
:10B9C800A1BD20460DF105020DF1060112F09AFB0A
:10B9D80030B10020194903B0BDE8F04012F092BD23
:10B9E80022463146BDF8063014F0CCFA9DF8050021
:10B9F800FF2808D112F0EAFC11490246002012F093
:10BA080081FD0135CAE70DF105020DF1060112F0BD
:10BA180079FB28B93946BDF8062014F0B3FAE5E7F2
:10BA28000020084903B0BDE8F04014F0ABBA00BFED
:10BA3800F1C20608F5C2060812C30608DBC20608EA
:10BA480006C3060800C3060808B5012012F0A4FBC7
:10BA5800BDE8084082080249002012F053BD00BF2B
:10BA68002AC30608002012F097BB022012F094BBEC
:10BA780008B534F0D7FEBDE8084071E508B534F0E4
:10BA8800AFFEBDE808406BE538B5D0E9023253F89F
:10BA9800221003EB82035B680D781C8800200A499A
:10BAA80012F030FD2146284616F01FFA024628B14A
:10BAB800BDE838400020054912F024BD044800EBD9
:10BAC8004500A0F8544038BD4CC3060866C30608B4
