S02B00002F686F6D652F6875796E682F53696D706C696369747953747564696F2F76365F776F726B737061632F
S315080000000010002095090008BD6C0008BD6C0008AA
S31508000010BD6C0008BD6C0008BD6C0008BD6C00080E
S31508000020BD6C0008BD6C0008BD6C0008BD6C0008FE
S31508000030BD6C0008BD6C0008BD6C0008BD6C0008EE
S31508000040BD6C0008BD6C0008BD6C0008BD6C0008DE
S31508000050BD6C0008BD6C0008BD6C0008BD6C0008CE
S31508000060BD6C0008BD6C0008BD6C0008BD6C0008BE
S31508000070BD6C0008BD6C0008755A0008217600089A
S31508000080BD6C0008BD6C0008BD6C0008BD6C00089E
S31508000090BD6C0008BD6C0008BD6C0008BD6C00088E
S315080000A0BD6C0008BD6C0008BD6C0008BD6C00087E
S315080000B0BD6C0008BD6C0008BD6C0008BD6C00086E
S315080000C0BD6C0008BD6C0008BD6C0008CD1C00089E
S315080000D0BD6C0008BD6C0008BD6C0008010D000869
S315080000E0E10C0008456F00084B6F0008516F0008C7
S315080000F0BD6C0008BD6C0008BD6C0008BD6C00082E
S31508000100BD6C0008BD6C0008BD6C0008BD6C00081D
S31508000110BD6C0008BD6C0008BD6C0008BD6C00080D
S31508000120BD6C0008BD6C0008BD6C0008BD6C0008FD
S31508000130BD6C0008BD6C0008BD6C0008BD6C0008ED
S31508000140BD6C0008BD6C0008BD6C0008BD6C0008DD
S31508000150BD6C0008BD6C0008BD6C0008BD6C0008CD
S31508000160BD6C0008BD6C0008BD6C0008BD6C0008BD
S31508000170BD6C0008BD6C0008BD6C0008BD6C0008AD
S31508000180BD6C0008BD6C0008BD6C0008BF82000885
S31508000190BD6C0008BD6C0008BD6C0008BD6C00088D
S315080001A0BD6C0008BD6C0008BD6C0008BD6C00087D
S309080001B0BD6C00080C
S315080001C0013800D0FCE770472DE9F04F93B0CDE930
S315080001D00A32DDE91C530E9353EC102BCDE90801C6
S315080001E0104619468DED060B1E9E06F06DF880B179
S315080001F0DDE906014FF0FF32C54B06F08DF840B930
S31508000200DDE906014FF0FF326FF4801306F066F859
S3150800021070B1DDE908019DED060B0E9B1E96CDE932
S315080002201C53DDE90A3213B0BDE8F04F00F088B977
S315080002300022DDE90601002306F050F8002800F048
S315080002403381DDE906A303F1004BCBF30A5016F41C
S315080002508063A0F2FF3008BF06250F9305F062FD04
S315080002609BA3D3E9002305F0C7FD9BA3D3E900238D
S3150800027005F00CFCCBF31304894644F07F51804605
S315080002800022A44B504641F4401105F0FDFB94A30F
S31508000290D3E9002305F0B0FD02460B464046494621
S315080002A005F0F4FB06F042F8044605F03BFD8EA384
S315080002B0D3E900238046894605F09EFD0022964B29
S315080002C005F0E4FB06F032F889A3D3E900230746D4
S315080002D04946404605F090FD80463846894605F071
S315080002E021FD85A3D3E9002305F086FD02460B46CA
S315080002F04046494605F0C8FB02460B46CDE90C23A5
S3150800030005F07AFDDDE90C23804689461046194634
S3150800031005F0BCFB0022CDE91001804B404649465A
S3150800032005F094FE00227E4B05F0B0FB02460B4614
S315080003304046494605F08AFE00227A4B05F0A6FBA0
S3150800034002460B464046494605F080FEDDE90C2389
S315080003508046894600204FF0804105F095FB02460D
S315080003600B464046494605F091FB02460B46DDE939
S31508000370100105F06BFE07F2FF3700226A4B05F005
S3150800038085FB00223B0505F037FD52465B46804655
S31508000390894605F0C1FF002840F08980CDE90C891F
S315080003A004F16303C72B34BF0427052731051BD582
S315080003B053A3D3E900235046594605F0A3FF002866
S315080003C07FD051A3D3E900235046594605F086FF4E
S315080003D0002876D00027A542C6BF2C1B04F1FF359E
S315080003E000253C4646F480660E9B9F422CBF4FF084
S315080003F00008A3EB070816F0020903D0002F18BF60
S315080004004FF000083CB1DDE90C235046594605F08B
S315080004101DFE82468B46DDE906010022002305F013
S315080004205DFF10B10BF100439B46DDE9080126F498
S315080004300063CDE90183DDE90A324BEC10AB009588
S3150800044000F07EF802465FB3DDE9091316F0200FC7
S3150800045000F10105089E0CBF65204520B047DDE97F
S3150800046008010523002205930A23002CCDE9023250
S3150800047007F1FF374FEAD473B8BF64422A4601939F
S3150800048004970A9B009407F008F80246B9F1000F92
S3150800049006D00B9BC41A0B9B1A190E9BA34245D870
S315080004A0104613B0BDE8F08FDDE906ABCDE60022B5
S315080004B0404649461A4B05F0C9FD013CCDE90C01F9
S315080004C06EE7002D90D00F9B002B8DD0013D8BE75A
S315080004D0FB799F501344D33FB3C8608B288AC63F25
S315080004E061436F63A787D23F71A379094F930A4087
S315080004F01655B5BBB16B0240EF39FAFE422EE63F00
S315080005002D431CEBE2361A3F0000000080842E4182
S31508000510FFFFEF7F0000F83F0000E03F00002C409F
S3150800052000002440000018400000F03F2020DDE9CC
S315080005300913089DA8470134ADE700BF0000000075
S315080005402DE9F04F5BEC10AB97B0CDE90501DDE97D
S315080005502057CDE90723504652465B465946229E08
S3150800056005F0B2FE70B90323CDE902760193B04BCC
S315080005700093DDE90501DDE9072306F0AEFE17B0B5
S31508000580BDE8F08F4FF0FF326FF48013504659469E
S3150800059005F0A4FE28B10423CDE902760193A54B04
S315080005A0E6E74FF0FF3250465946A34B05F0B4FE36
S315080005B068B1A24A06F00403002B08BF0322A04B29
S315080005C01CBF13460422CDE902760192D0E75046B5
S315080005D093A3D3E90023594605F09EFE38B992A3A2
S315080005E0D3E900235046594605F078FE68B1DDE99F
S315080005F00723DDE905014BEC10ABCDE92176209503
S3150800060017B0BDE8F04FFFF7DFBD002200235046C4
S31508000610594605F063FE002800F09A805B4652466C
S315080006200020002105F030FA012382468B46099303
S3150800063016F4806400F08E80092D40F28E80002426
S3150800064030210EABA5F109020134202C03F8011B59
S31508000650A5EB040901D09442F6D15946504605F057
S3150800066065FE784B054603EBC90393ED007B8DEDDC
S315080006700A7B05F057FB02460B465046594605F0DD
S3150800068003FADDE90A2305F0B7FB02460B46CDE976
S315080006900C2305F073FE804605F034FB02460B4634
S315080006A0DDE90C0105F0F0F902460B46CDE90C230D
S315080006B00022654B05F030FE002851D008F10108EC
S315080006C0404605F01FFB02460B46DDE90A0105F028
S315080006D00FFE10B14FF000080135B9F1000F50D1E7
S315080006E0284605F01FFB02460B465046594605F0BC
S315080006F0CBF90022544B8046894605F0EFFD30B110
S31508000700002240464946504B05F006FE10B1E80760
S3150800071000D501350A210EAB1A19202C0AD095FBF3
S31508000720F1F001FB1055303502F8015B013405463E
S315080007300028F2D106F00302012A57D1002F55D01E
S31508000740099A12B916F00C0F00D0013F302245E085
S3150800075009906DE74FF006097FE7A94600247CE774
S315080007600022DDE90C01384B05F0B8FD0028B4D1AC
S31508000770B8F1000F02D018F0010FAED008F1010849
S31508000780ABE70A210EAB2344202C0ED0B8FBF1F0C0
S3150800079001FB1082B8F1090F02F1300209F1FF39A5
S315080007A004F1010403F8012B11D83021A1440EAA43
S315080007B0202CAFD0A14504F101030AD11C4609F14A
S315080007C058030DEB03092E2309F8203CA2E78046BF
S315080007D0DAE7A1541C46EBE71A550134A74205D9B6
S315080007E0202CF9D1CDE902760194C1E6202CF9D066
S315080007F0099A3AB12D2104F158026A4402F8201CDC
S315080008000134EFE7710704D504F158022B216A4435
S31508000810F4E73207E6D504F1580220216A44EDE7E9
S315080008200000000065CDCD410000000065CDCDC1BA
S315080008306391000867910008FFFFEF7F5A9100084F
S315080008405F910008709100080000E03F0348044BE0
S31508000850834202D0034B03B118477047F8170020AC
S31508000860F817002000000000064B0749C91A89102E
S3150800087048BF0131491003D0044B0BB10148184752
S31508000880704700BFF8170020F81700200000000086
S3150800089010B5064C237843B9FFF7D8FF044B13B1BC
S315080008A00448AFF300800123237010BD0C17002005
S315080008B000000000B093000808B5054B1BB10549B8
S315080008C00548AFF30080BDE80840FFF7CDBF00BF7D
S315080008D00000000000100020B0930008A3F5803A3D
S315080008E0704700BF174B002B08BF134B9D46FFF7F9
S315080008F0F5FF00218B460F461348144A121A06F0D4
S3150800090009FF0E4B002B00D098470D4B002B00D04B
S3150800091098470020002104000D000D48002802D049
S315080009200C48AFF3008005F0EBFE2000290006F026
S3150800093079FE05F0D3FE00BF0000080000000000A5
S3150800094000000000001000200010002038170020CA
S31508000950000000000000000008B5034807F007FC87
S31508000960BDE8084006F033BE588D0008014807F078
S31508000970FEBB00BF588D00080348044A0449121AF2
S31508000980921006F09CB900BFB4010008B401000833
S315080009903817002008B5154B83F30A8800F030F89D
S315080009A0FFF7EAFF124B13498B4212D30020124B72
S315080009B012498B4218D3FFF795FF186850F8224062
S315080009C0586840F82240013298688242F5D30C33C1
S315080009D0EAE70022F8E71C6844F8220001325C685E
S315080009E0A242F8D30833E4E70022F8E70000002023
S315080009F0B8930008C4930008C4930008C493000879
S31508000A004FF48041144B154A70B59A60D3F8882084
S31508000A10134D42F47002C3F88820124A05F50054B3
S31508000A2091664FF0FF3222666FF4003262660D223D
S31508000A30A2660222C3F8D020BFF34F8FBFF36F8F91
S31508000A404FF44036002003F083FD0020E66003F0F3
S31508000A504DFD2E6170BD00BF00ED00E000000008EE
S31508000A600080004400900050014B1860704700BF9A
S31508000A703C170020054B1860054B1B6F03F0070356
S31508000A80032B01D106F048BF704700BF441700206A
S31508000A900080005038B504460D4601B118B9452105
S31508000AA0044806F019F9236813B92B60256038BD88
S31508000AB01C46F8E71883000810B5044618B95621ED
S31508000AC0044806F009F9206818B103682360002372
S31508000AD0036010BD18830008002307B52948019351
S31508000AE007F045FB4FF44073012204216846ADF830
S31508000AF0003000F0BFF80122234B0520C3F8442438
S31508000B0001A907F02FFB002839D1204BD3F8F02094
S31508000B1042F00102C3F8F020D3F8FC2042F08072BC
S31508000B20C3F8FC201A4AA3F55D431A60019B194ACB
S31508000B3003F5D52303F2FC43B3FBF2F3164A013B54
S31508000B4013610223C2F8F0304FF48073C2F80433FD
S31508000B504FF06043114AC3F8B02F114AC3F8802EEC
S31508000B60D3F8002E42F48072C3F8002EFF2283F8D1
S31508000B702020D3F8002E22F48072C3F8002E03B08A
S31508000B805DF804FB588D000800D0035000ED00E026
S31508000B90FF030040F8590D00000004E055CEACC52F
S31508000BA0090001004FF06043D3F8802E30B5D20714
S31508000BB015D501240B4D8440D5F8FC2042F08072EF
S31508000BC0C5F8FC20D3F8002E2243C3F8002E53F8AC
S31508000BD02020002AF0D003F82010002030BD112074
S31508000BE0FCE700BF00ED00E0F8B504460127124D0A
S31508000BF00CB314F001000BD0002024F0010405EB1F
S31508000C00C0021668002EF3D05168C0B2B047EFE7AD
S31508000C102246013020284FEA520201D0D307F8D5E0
S31508000C2007FA00F20F2824EA0204E8D9421E05EB67
S31508000C30C2021038E5E7F8BD1810002008B50C48C0
S31508000C4007F095FA272003F06BFC28B1272003F05C
S31508000C507FFC272003F04AFC282003F061FC28B11A
S31508000C60282003F075FC282003F040FC002008BD6E
S31508000C70588D0008F8B50D461646044628B9164894
S31508000C80892106F029F82220F8BD0F2903D98C21DD
S31508000C90114806F021F82378DBB1013BDBB2022BC1
S31508000CA006D80E4A32F813306278D340DB0703D4ED
S31508000CB08D21094806F010F807F04EFA0746324625
S31508000CC02946204602F0A4FF384607F040FA0020DD
S31508000CD0DAE7FF23E8E700BF9A8300081E840008C6
S31508000CE008B502F08BFF054B00F0553020F0A04008
S31508000CF0C3F82004BDE80840FFF776BF00E00350BC
S31508000D0008B502F07BFF054B00F0AA3020F0204022
S31508000D10C3F82004BDE80840FFF766BF00E00350AB
S31508000D2038B5036805461C68B4F1B64F23D0164B90
S31508000D309C4222D003F580439C4220D003F5804391
S31508000D409C4220D12C2003F0B3FB204606F064F920
S31508000D5020460E4903F040F82B7993B995F87E3072
S31508000D60002B14BF4FF4FC614FF4F8612046BDE830
S31508000D70384002F0F5BF2920E5E72A20E3E72B20D3
S31508000D80E1E70349F2E738BD00000B50FFFF1F00FB
S31508000D90E4060100B0F1B64F10B504460FD00B4B70
S31508000DA098420CD003F58043984208D003F5804357
S31508000DB0984204D040F25911054805F08DFF636842
S31508000DC0DB0744BF0823E36010BD00BF00000B50DB
S31508000DD024840008B0F1B64F10B504460FD00B4B6B
S31508000DE098420CD003F58043984208D003F5804317
S31508000DF0984204D040F22911054805F06DFF636852
S31508000E00DB0744BF0423E36010BD00BF00000B509E
S31508000E10248400082DE9F74F9A460368C7881D6899
S31508000E2002237E007F2F80F87C300446B3B28846C2
S31508000E3091464FF0000B06F0FE061BD91B0A03F07D
S31508000E400603B34643F0F00605F0B4FF00900D9B89
S31508000E50BBB105F0AFFF009BC01A0D9B984210D39B
S31508000E602023EB600B23072284F87D30104603B05D
S31508000E70BDE8F08F90F87E30012B08BF46F00106DA
S31508000E80E2E7284602F0C6FF10F4C062034617D010
S31508000E906A490090284602F09FFF2022009BEA60DC
S31508000EA099054FF000024CBF0423052384F87C20E3
S31508000EB047BF84F87D3031222F2284F87D30D5E76C
S31508000EC094F87C1002390B2900F2AE80DFE801F0B5
S31508000ED0061133ACAC3D47AC4E607598284603F016
S31508000EE0CFF83146284602F0B3FF0323A4F87C3036
S31508000EF0ADE75A0613D54021284602F06DFF7F2F2D
S31508000F0007D95946284602F0A3FF042384F87C3003
S31508000F109DE794F87E30012B40D10C23F6E718069E
S31508000F2095D58021284602F057FF284603F0CAF8CF
S31508000F3040F20D23DAE75906F1D54021284602F09A
S31508000F404BFF94F87E30012B28D1284603F098F8F9
S31508000F50284646F0010102F07BFF0823D6E75A0629
S31508000F60DDD54021284602F037FFD6E7636F4B45AB
S31508000F7008D25A1C626718F80310284602F068FF60
S31508000F800B23C3E794F87E30022B31D10723BDE744
S31508000F90580605D54021284602F01EFF0A23B5E764
S31508000FA019067FF554AF8021284602F015FF28461A
S31508000FB003F088F840F20D3398E79A067FF547AFB5
S31508000FC02021284602F008FFA36F0C9A934208D204
S31508000FD05A1C2846A267019302F056FF019B0AF89D
S31508000FE00300A36F0C9A2846934206D1FFF7D2FE58
S31508000FF0284603F067F80D2388E7FFF7EBFE26E798
S31508001000DB057FF524AF4FF480712846009202F085
S31508001010E3FE94F87D30022B0CD0032B0CD0012371
S31508001020009A84F87D3021E74FF400630122A4F882
S315080010307C301BE72D2219E7062217E7FFFF1F0062
S3150800104073B5054600284FD003681C68B4F1B64F3F
S3150800105008D0284A24F48041914203D002F5004280
S31508001060944243D1187901A907F07CF8064600286E
S315080010703ED1204602F0AAFF20461F4902F0ACFEE8
S3150800108020461D4902F08AFE2046297902F0D6FF3D
S315080010902B794BB96A791949194B20469B5C51F84B
S315080010A02220019902F00EFF204602F019FEB4F143
S315080010B0B64F13D00F4B9C4212D003F580439C4287
S315080010C010D003F580439C4214BF4FF0FF3403242D
S315080010D00C4B43F82450304602B070BD0024F7E7A5
S315080010E00124F5E70224F3E72226F4E70F26F2E7C0
S315080010F00126F0E700000B50FFFF1F00BC84000824
S31508001100B7840008081100202DE9F8430C46054667
S31508001110002800F09080002900F08D800B681B687D
S31508001120B3F1B64F1ED0474A93421DD002F580420E
S3150800113093421BD002F5804293427ED1032623793F
S31508001140012B7CD86379022B79D807F005F83E4B3A
S31508001150074653F826305BB106F0F9FF12242046FD
S31508001160BDE8F8830026EAE70126E8E70226E6E76F
S31508001170A04658F8063B986806F0F9FF334806F08B
S31508001180F6FF01220A21404602F042FD01220A2109
S3150800119004F1080002F03CFD237983B94FF00A09EF
S315080011A0404602F0FFFC642004F020F8404606F0B2
S315080011B0BBFC642004F01AF8B9F10109F0D1032345
S315080011C0234A02EB0611C1F82835E079A37953368C
S315080011D043EA0043C1F82C35617A237A360143EA9B
S315080011E00143935123682B6023792B7163796B71C3
S315080011F0E3882B8123896B8100F0CEFC002105F161
S315080012000C0000F051FC014620B1384606F09FFF5D
S315080012101924A4E705F1100000F046FC044618B1AD
S31508001220E86800F093FCF0E72846FFF709FF384620
S3150800123006F08DFF93E7222491E70F248FE72124F8
S315080012408DE700BF00000B5008110020588D0008DC
S3150800125000C00350F8B5036804461D68284602F026
S31508001260D9FD4706064633D54021284602F0B4FD87
S3150800127094F87C30042B13D0082B25D0032B0CD1E3
S31508001280E3887E2B0AD8002384F87D3094F87E30D4
S31508001290012B02D00B2384F87C30F8BD0423FAE72F
S315080012A094F87E30012B03D00B23A4F87C30F4E7A6
S315080012B0284602F0E5FE94F87F10284641F0010121
S315080012C002F0C6FD0823E6E7002384F87D30E4E74C
S315080012D0300713D52846082102F07EFD0821284646
S315080012E002F05CFD284602F0CBFE94F87F102846F3
S315080012F0BDE8F84041F0010102F0AABD16F08007EA
S315080013001BD08021284602F067FD94F87C30082B14
S3150800131003D006D8033B012B05D80A2384F87D3071
S3150800132001E00B2B07D00E2384F87C302846BDE855
S31508001330F84002F0C7BE0323F0E7F10511D52846A9
S31508001340144902F049FD2846124902F027FD2046B5
S3150800135005F037FDAF6094F87D30002B9DD1012351
S31508001360B3E716F4C06F98D028460A4902F034FD50
S315080013702846084902F012FD204605F022FD2023E2
S31508001380B205EB6001D504239FE7730585D50523D0
S315080013909BE700BFFFFF1F00F8B5036805461C68FA
S315080013A0204602F037FD10F00407064630D02046E6
S315080013B0FFF710FD20464A4902F00EFD204649492E
S315080013C002F0CEFC95F87C30052B02D0092B17D0FD
S315080013D0F8BDEB887E2B0BD8002385F87D3095F871
S315080013E07E30012BF4D1042304F58054A360EFE783
S315080013F02021204602F0B4FC062385F87C30E7E776
S315080014000421204602F0CAFC002385F87D30DFE778
S31508001410B0062ED52021204602F0DEFC20212046EB
S3150800142002F0BCFC95F87C30062B1AD1EB8895F8AF
S3150800143080205B00DBB2934220460ED1FFF7CAFC40
S3150800144095F87E30012B06D1042304F58054A36059
S3150800145085F87D70BCE70923CFE7FFF79BFC0A23D5
S31508001460D3E7204605F0D8FD2046BDE8F840FFF74B
S3150800147091BC16F0800705D02046BDE8F8408021CB
S3150800148002F08CBCF10311D52046174902F086FC00
S315080014902046154902F0A0FC284605F092FCA760F4
S315080014A095F87D30002B93D10123AEE716F4C06F73
S315080014B08ED020460C4902F071FC20460A4902F0FB
S315080014C08BFC284605F07DFC2023B205E36001D598
S315080014D004239AE773057FF57BAF052395E700BFDD
S315080014E02400010080000100FFFF1F0010B5154B06
S315080014F053F820402379204673B9FFF7ABFE94F8DA
S315080015007D1001290BD1D4F88430CBB12046D4F80C
S315080015108C10BDE810401847FFF73EFFEFE779B19A
S3150800152094F87C300E2B0BD10F2384F87C30D4F83A
S3150800153088302BB12046D4F88C20BDE810401847D7
S3150800154010BD00BF081100202DE9F74F0D46904643
S3150800155099460446002800F0D480002A00F0D1807D
S315080015600C9B002B00F0CD800679002E40F0CC8035
S31508001570B9F1000F00F0CB800D9B002B00F0C7805F
S315080015807F2900F2C48006F0E7FDE5800090C4E9F3
S315080015901D66204684F87E60FFF7C2FB2368E7884D
S315080015A01D6802237F0084F87C30FBB2019305F0A6
S315080015B001FC83460E9BA3B105F0FCFB0E9BA0EB3A
S315080015C00B0083420DD82023EB600B234FF0070A4C
S315080015D084F87D30009806F0BAFD504603B0BDE8A1
S315080015E0F08F284602F016FC10F4C06A074616D09B
S315080015F02846484902F0F0FB2023EB600023BA0591
S3150800160084F87C304BBF042305234FF0310A4FF092
S315080016102F0A4CBF84F87D3084F87D30DAE794F8D9
S315080016207C1002390B295FD8DFE801F006115E5EEF
S315080016305E5E5E5E253E5E4C284602F021FD28462B
S31508001640019902F005FC0323A4F87C30B2E77B0677
S3150800165005D54021284602F0BFFB0A2316E03806C6
S31508001660A8D58021284602F0B7FB284602F02AFDB5
S3150800167040F20D23E8E7636F4B450AD25A1C6267AE
S3150800168018F80310284602F0E3FB0B2384F87C3095
S3150800169090E726B9DDE90C89666701268AE72846B8
S315080016A002F010FD0D23F1E77906D2D43A0681D56A
S315080016B08021284602F090FB284602F003FD40F2FE
S315080016C00D33C1E7FB057FF575AF4FF480712846EA
S315080016D002F082FB94F87D20022A0CD0032A0DD052
S315080016E0012284F87D2075E74FF400634FF0010A64
S315080016F0A4F87C306EE74FF02D0A6BE74FF0060A28
S3150800170068E74FF0220A68E74FF0240A65E74FF0CA
S31508001710210A62E7FFFF1F001FB5044618B95421C6
S31508001720324805F0D9FA2368B3F1B64F30D0304ABB
S3150800173093422FD002F5804293422DD002F5804283
S3150800174093422BD05821294805F0C6FA4FF0FF33AB
S315080017509022284802FB03002368B3F1B64F1FD036
S31508001760234A93423BD002F58042934239D002F590
S315080017708042934237D040F201111C4805F0ACFA7A
S31508001780002363210193194805F0A6FA04B010BD99
S315080017900023DDE70123DBE70223D9E70323D7E7A5
S315080017A0154B01930023E26814498DF808308A42E4
S315080017B004D9134B9A428CBF022301238DF80930B2
S315080017C0A38801A9ADF80A30E388ADF80C30FFF715
S315080017D09BFC1228DAD00028D8D07621D3E7094B0B
S315080017E0DFE7094BDDE7094BDBE700BFC8840008E4
S315080017F000000B5018110020A48D0008A0860100D7
S31508001800801A0600908D00087C8D0008688D0008F7
S3150800181030B50A4685B000B119B96FF0030005B0B6
S3150800182030BDB0F1B64F2BD03D4B98422AD003F5C8
S315080018308043984228D003F580439842EDD103238C
S3150800184090214B4337495818CB58002BE5D053887D
S315080018501188013B4908072BDFD801A454F823F067
S315080018608D180008B31800081B180008C7180008C8
S315080018701B1800081B1800081B180008E7180008A2
S315080018800023DDE70123DBE70223D9E71389002BD1
S31508001890C3D0254CC9B20094526805F0B3FA2D2876
S315080018A038D030D8062835D0072836D00028B6D004
S315080018B0B3E71389002BB0D01B4CC9B20094526809
S315080018C005F0D0FAEBE71389002BA6D0148A002C72
S315080018D0A3D0154DC9B2CDE90145D4680094526824
S315080018E005F0F4FADBE71389002B96D0148A002C4E
S315080018F093D00D4DC9B2CDE90145D468009452681C
S31508001900FFF722FECBE72F2807D0312885D16FF0C5
S31508001910020084E74FF0FF3081E76FF001007EE7B1
S3150800192000000B5018110020E09304002DE9F04F39
S315080019309A46564B85B01B7806460F461546DDF87F
S315080019403C909DF844B0DDF85080002B00F097805D
S31508001950072A00F296800E9B002B00F09280B9F1C0
S31508001960000F00F08E80129BB3F5006F00F389809C
S31508001970012803D1109B002B00F08380444B03EB16
S3150800198005131B7B002B7ED0424C10220021684693
S3150800199005F0C0FE04EB45141022A7BB39462046C5
S315080019A005F0B8FE43F210036380BBF1000F03D1C4
S315080019B0E37843F00303E370364A0E9B02EB451CBB
S315080019C0CCE90193129B6901581E9DF84C30C0F36F
S315080019D00A0003F003039B0643EA001E53582E48E9
S315080019E0012E00EA03004EEA0003CDF800A053508A
S315080019F017D0B8F1000F2ED19CF8023068F3041303
S31508001A008CF8023027E00021204605F083FE4FF4CB
S31508001A1044736380BBF1000FCED1E37843F0300303
S31508001A20C9E713230CF1100ECCF80C309CE80F0014
S31508001A308EE80F006FF00301DCF81C20109B61F3A1
S31508001A409F02012FCCF81C20CCF8143003D1CCF817
S31508001A501890CCF8043000270D4A290102EB05132B
S31508001A6042F80180159A28465A60694622469F60C0
S31508001A705E7301F035FE384605B0BDE8F08F0748BD
S31508001A80FAE70748F8E70748F6E700BF0D1700200A
S31508001A9058140020581300200F80FFF3028000F02E
S31508001AA0018000F0078000F038B5124B05461B7818
S31508001AB0DBB1E0B106F050FB0F4A00231146147B58
S31508001AC054B92B6001251A0101EB03131D738C50C1
S31508001AD006F03DFB204638BD0133082B02F1100203
S31508001AE0EDD106F034FB0548F5E70548F3E7054868
S31508001AF0F1E700BF0D17002058140020048000F0FD
S31508001B00028000F0018000F038B506F025FB0023BE
S31508001B1005460B4A147B6CB90133082B02F11002F7
S31508001B20F8D101F05FFD074B28461C7006F00FFB45
S31508001B30204603E0284606F00AFB034838BD00BFE6
S31508001B40581400200D170020058000F00D4B10B525
S31508001B501B78044693B1072812D806F0FDFA0A4BFB
S31508001B6003EB04131A7B2AB100241C7306F0EFFA60
S31508001B70204610BD06F0EBFA0448FAE70448F8E7F1
S31508001B800448F6E70D17002058140020068000F0D8
S31508001B90028000F0018000F0154B13B51868002389
S31508001BA001908DF8043006F0D7FA124B1C7824B150
S31508001BB006F0CDFA104802B010BD01221A7006F0E0
S31508001BC0C6FA0E4B01A81C731C7783F82C4083F8C1
S31508001BD03C4083F84C4083F85C4083F86C4083F8BB
S31508001BE07C4008238DF8073001F032FD2046E2E7F5
S31508001BF0508500080D170020038000F058140020B7
S31508001C00F8B50D4D2D7885B1072810DC0B4D06016A
S31508001C1005EB0014277B67B1AB510025069BA56031
S31508001C20636001F05DFD2846F8BD0548FCE70548F8
S31508001C30FAE70548F8E700BF0D17002058140020FA
S31508001C40028000F0018000F0078000F00A4A08B51B
S31508001C5012785AB107280BD8084A02EB00131B7BE7
S31508001C6043B1002101F0D4FC002008BD0448FCE77C
S31508001C700448FAE70448F8E70D170020581400202E
S31508001C80028000F0018000F0078000F00A4A08B5DB
S31508001C9012785AB107280BD8084A02EB00131B7BA7
S31508001CA043B1012101F0B4FC002008BD0448FCE75B
S31508001CB00448FAE70448F8E70D17002058140020EE
S31508001CC0028000F0018000F0078000F0184B2DE933
S31508001CD0F0411F6D5B6D1F4000D5FEE7012600250C
S31508001CE0144CDFF85880374218D02368C8F850607B
S31508001CF0A3B1A168284601316268A1609847637B51
S31508001D00012B0BD150B90C4B03EB45131A7B60F32F
S31508001D1041021A731A7F60F341021A770135082DBA
S31508001D204FEA460604F11004DDD1BDE8F08100BF94
S31508001D3000000450581400205813002000200450B6
S31508001D40044BD3F88420D206FBD4D3F88400C0F31E
S31508001D50811070470040005038B5104B0546D3F83F
S31508001D6000310C4603F00303022B0BD0032B0DD0D6
S31508001D70012B0FD105F0EAFD032305B1286004B154
S31508001D80236038BD05F040FE0923F6E705F0E4FDBB
S31508001D900823F2E701230020EFE700BF0080005088
S31508001DA038B5104B0546D3F840310C4603F003030B
S31508001DB0022B0BD0032B0DD0012B0FD106F0B8F94F
S31508001DC00A2305B1286004B1236038BD05F01CFE5E
S31508001DD00923F6E706F0AFF90C23F2E70123002002
S31508001DE0EFE700BF0080005038B5104B0546D3F822
S31508001DF060310C4603F00303022B0BD0032B0DD0E6
S31508001E00012B0FD106F094F90A2305B1286004B115
S31508001E10236038BD05F0F8FD0923F6E706F08BF9CF
S31508001E200C23F2E701230020EFE700BF00800050F3
S31508001E3038B5104B0546D3F840320C4603F0030379
S31508001E40022B0BD0032B0DD0012B0FD106F070F906
S31508001E500A2305B1286004B1236038BD05F0D4FD16
S31508001E600923F6E706F067F90C23F2E701230020B9
S31508001E70EFE700BF0080005038B5124B0546D3F88F
S31508001E8080300C4603F00303022B0BD0032B0DD036
S31508001E90012B0FD105F020FD0E2305B1286004B1F2
S31508001EA0236038BD05F05CFD0723F6E705F00EFD57
S31508001EB00623F2E7044841F22E2104F00DFF002321
S31508001EC01846EAE7008000505485000838B51A4BD2
S31508001ED00546D3F820010C4600F00700062821D84D
S31508001EE0DFE800F028040C1410181C0005F0EEFCBE
S31508001EF0052305B1286004B1236038BD05F026FD29
S31508001F000323F6E705F02CFD0723F2E705F01AFD93
S31508001F100223EEE705F0DAFC0623EAE705F016FDEC
S31508001F200423E6E7054841F2AB2104F0D5FE002379
S31508001F301846DEE70123DCE70080005054850008D8
S31508001F4038B5194B0546D3F828310C4603F0070374
S31508001F50013B052B20D8DFE803F003131B0F0B17F3
S31508001F6005F0B4FC052305B1286004B1236038BD2B
S31508001F7005F0ACFC0623F6E705F0F2FC0723F2E7CA
S31508001F8005F0E4FC0323EEE705F0E0FC0423EAE7AA
S31508001F9005F0D8FC0223E6E7044841F2A50104F05F
S31508001FA09BFE00231846DEE7008000505485000893
S31508001FB0002337B50193194B0546D3F820320C4652
S31508001FC003F00703042B1FD8DFE803F025030F14DB
S31508001FD01900002101A8FFF7B3FF12230DB1019ADA
S31508001FE02A6004B1236003B030BD05F0B9FC0723AD
S31508001FF00190F3E706F09CF80A230190EEE705F056
S3150800200003FD09230190E9E741F26201044804F05F
S3150800201063FE0023E2E70123E0E700BF00800050EB
S3150800202054850008F7B50027144B0197D3F880416B
S31508002030064604F00304022C0D4614D0032C0DD0DA
S31508002040012C14D1394601A8FFF740FF10240EB120
S31508002050019B336005B12C6003B0F0BD05F080FC30
S3150800206007240190F3E705F06DFC0190EFE741F2D4
S315080020700E41034804F030FE3C46E8E70080005075
S315080020805485000838B5164B0546D3F800020C46A9
S3150800209000F00700042819D8DFE800F020030B0F2A
S315080020A0130006F045F80A2305B1286004B1236039
S315080020B038BD05F0A9FC0923F6E706F03CF80C2321
S315080020C0F2E705F029FC0F23800AEDE7054841F2FF
S315080020D0CC4104F001FE00231846E5E70123E3E7B7
S315080020E0008000505485000838B5164B0546D3F8CD
S315080020F008020C4600F00700042819D8DFE800F0AB
S3150800210020030B0F130006F013F80A2305B1286005
S3150800211004B1236038BD05F077FC0923F6E706F01D
S315080021200AF80C23F2E705F0F7FB0F23800AEDE720
S31508002130054841F2045104F0CFFD00231846E5E7AF
S315080021400123E3E7008000505485000838B5124B98
S315080021500546D3F850320C4603F00303022B0FD082
S31508002160032B05D0012B0FD105F0E2FF0A2302E06D
S3150800217005F0E1FF0C2305B1286004B1236038BDE2
S3150800218005F042FC0923F6E7044841F2D50104F0BC
S31508002190A3FD00231846EEE700800050548500088A
S315080021A0002337B50193184B0546D3F860320C4621
S315080021B003F00703013B032B1FD8DFE803F0020EE9
S315080021C01914002101A8FFF781FE10230DB1019A09
S315080021D02A6004B1236003B030BD002101A8FFF7CF
S315080021E0DFFD1123F2E705F0BBFB07230190EDE7BE
S315080021F005F0A8FB02230190E8E741F2091103481C
S3150800220004F06AFD0023E1E70080005054850008C9
S31508002210002337B50193184B0546D3F894320C467C
S3150800222003F00703013B032B1FD8DFE803F0020E78
S315080022301914002101A8FFF749FE10230DB1019AD0
S315080022402A6004B1236003B030BD002101A8FFF75E
S31508002250A7FD1123F2E705F083FB07230190EDE7BD
S3150800226005F070FB02230190E8E741F23C110348B0
S3150800227004F032FD0023E1E7008000505485000891
S3150800228073B500240F4B0194D3F87032064603F059
S315080022900303012B0D4607D0022B11D041F267111B
S315080022A0094804F019FD04E0214601A8FFF778FD66
S315080022B011240EB1019B336005B12C6002B070BDCC
S315080022C01524F6E7008000505485000808B5334BFE
S315080022D098424FD027D8324B984245D017D8314B21
S315080022E098423ED00AD838B12F4B984239D041F29D
S315080022F0E3312E4804F0F0FC002034E02C4B9842E1
S315080023002FD02C4B9842F2D12B4B586E2BE02B4BEF
S3150800231098422CD003F5371303F5D8639842E6D1D3
S31508002320254B986F1FE0264B98422FD00CD8254B8B
S31508002330984223D0244B984224D0244B9842D6D195
S315080023401D4BD3F884000EE0214B984222D003F5AA
S31508002350740303F510539842C9D1174BD3F8980064
S3150800236001E0154B986D08BD134B186FFBE7124B30
S31508002370586FF8E7104BD3F88000F4E70E4BD3F804
S315080023808800F0E70C4BD3F88C00ECE70A4BD3F83F
S315080023909000E8E7084BD3F89400E4E780BA8C018C
S315080023A0405DC60080841E0040420F005485000828
S315080023B000093D00C0CF6A000080E00F0024F40049
S315080023C0007E560380D54302006CDC020048E80113
S315080023D00090D003B0F5207F10B52ED009D8B0F5FF
S315080023E0007F24D003D868B1B0F5C07F0AD0002496
S315080023F01BE0B0F5607FFAD1124BD3F88040C4F3E6
S31508002400011412E00F4B1C6F230B13F00E0FC4F3CD
S3150800241003340AD0072C08D00F2C06D0032C04D07E
S3150800242040F28B21084804F057FC601C10BD054B90
S31508002430D3F89040C4F30464F7E7024B1C6FC4F367
S315080024408024F2E700800050548500084FF480325B
S3150800245038B5104B04469A6600200D46FFF7BAFFBA
S3150800246041F671320C4B6043DC69DA635A6804F44E
S31508002470803422F440125DB90849884294BF00208E
S315080024800120000502435A600CB10022DA6338BD08
S315080024900349F2E70090005000000350005A620218
S315080024A0002D3101420938B504460D4606D140F2E1
S315080024B03B310D4804F010FC002305E0531E022BA7
S315080024C00BD80A4B03EB820304F01F0445B103F54E
S315080024D080530122A2401A6038BD40F24931E8E72C
S315080024E003F50053F5E700BF5485000860800050E7
S315080024F0002130B5B0F5807F85B00446CDE90011DE
S3150800250000F009816BD8002800F0D980A0F12004DA
S31508002510602C74D8602C72D8DFE814F0D100DE0085
S31508002520D100DE00EE00EE00EE00EE00EE00DE006A
S31508002530F8007D000E019D007D00DE00DE00DE0055
S3150800254071007100710071007100710071007100F5
S31508002550DE00DE00DE00AF001801DE00710071004B
S3150800256071007100710071007100710071007100D5
S31508002570710071001D01EE00D100D100D1001301D8
S315080025807D007D00BB0022019200F30071007100FE
S31508002590710071007100C600D1007100EE00EE00F6
S315080025A0EE00EE00EE00F300F300DE007100DE0040
S315080025B0DE00710071007100710071007100710018
S315080025C07100710071007100710071007100710075
S315080025D0710071007100710071007100CB00B0F5D7
S315080025E0E06F00F0B3803BD8B0F5607F7FD01DD890
S315080025F0B0F5007F66D008D8B0F5C07F5FD040F24E
S31508002600AA415C4804F068FB56E0B0F5207F63D029
S31508002610B0F5407FF3D105F07FF904464FF42070FA
S31508002620FFF7D8FEB4FBF0F464085EE0B0F5B06FCF
S315080026306CD00AD8B0F5806F5ED0B0F5A06FDED149
S3150800264000216846FFF7B4FC36E0B0F5C06F73D0DA
S31508002650B0F5D06FD3D100216846FFF713FD2BE004
S31508002660B0F5186F77D00DD8B0F5086F7DD0B0F5F6
S31508002670106F66D0B0F5F06FC1D100216846FFF73C
S31508002680B3FB19E0B0F5286F6AD007D8B0F5206F0C
S31508002690B5D100216846FFF783FD0DE0B0F5406F20
S315080026A02FD0B0F5486FAAD100216846FFF7B0FDD4
S315080026B002E005F011F90090009805B030BD05F06C
S315080026C02BF9F8E705F008F905462046FFF782FEDC
S315080026D0B5FBF0F50095EFE705F01EF904464FF453
S315080026E02070FFF777FEB4FBF0F40094E4E701A846
S315080026F0FFF7C2FB019DE8E700216846FFF7E6FB06
S31508002700DAE700216846FFF71BFCD5E70021684693
S31508002710FFF788FCD0E74FF0E02302911B695B07BF
S3150800272005D505F0F9F80290029B0093C4E703A9C2
S3150800273002A8FFF735FBF7E700216846FFF730FBED
S31508002740BAE700216846FFF7CFFCB5E700216846DF
S31508002750FFF76EFBB0E700216846FFF7F7FCABE72B
S3150800276000216846FFF78CFDA6E76846FFF7F4FAEE
S31508002770A2E700BF5485000808B58020FFF7B8FE19
S31508002780034B98429EBF4FF48032024B1A6708BD2E
S31508002790005A620200A000501FB503460020B3F598
S315080027A0807F019000F0FB8000F28B80662B7BD83F
S315080027B03C2B05D8243B092B5CD940F28F51DDE030
S315080027C03D3B292BF9D801A252F823F0C12900086C
S315080027D0EF290008BB270008BB270008BB2700080D
S315080027E0BB270008BB270008BB270008BB27000833
S315080027F0BB270008BB270008BB270008BB27000823
S31508002800BB270008BB270008F929000895290008F6
S31508002810BB270008BB270008BB2700082B29000890
S31508002820BB270008BB27000845290008032A00081B
S31508002830ED280008E5290008BB270008BB27000883
S31508002840BB270008BB270008BB2700085D2900082E
S31508002850BB270008BB27000895290008952900080A
S31508002860952900089529000895290008E5290008F2
S31508002870E5290008092BA0D801A252F823F000BFC9
S315080028809529000895290008952900089529000822
S3150800289095290008BB27000885290008BB270008DA
S315080028A00B290008CB290008802B86D1574B1B6FB4
S315080028B003F00703013B032B5ED8DFE803F05B5404
S315080028C05759B3F5F06F7BD024D8B3F5B06F59D00C
S315080028D011D8B3F5607F00F08180FFF46EAFB3F5D1
S315080028E0806F57D0B3F5A06F7FF467AF002001A9BA
S315080028F0FFF75EFB4AE0B3F5D06F66D0B3F5E06F3D
S3150800290075D0B3F5C06F7FF458AF002001A9FFF763
S3150800291047FA3BE0B3F5186F6ED00BD8B3F5086FDE
S3150800292058D0B3F5106F7FF448AF002001A9FFF720
S31508002930DBFB2BE0B3F5286F63D008D8B3F5206F1F
S315080029407FF43BAF002001A9FFF72AFC1EE0B3F590
S31508002950406F47D0B3F5486F7FF42FAF002001A929
S31508002960FFF756FC12E0052301930FE00323FBE76C
S315080029700823F9E70223F7E740F2DC41244804F08C
S31508002980ABF903E0002001A9FFF74CFB019805B05D
S315080029905DF804FB002001A9FFF798FAF6E74FF067
S315080029A0E02302901B695B0705D504F0B5FF0D23EC
S315080029B00393039BD8E703A902A8FFF7F1F9F8E701
S315080029C0002001A9FFF710FAE0E7002001A9FFF7A8
S315080029D059FBDBE701A9FFF7BFF9D7E701A9FFF71D
S315080029E04BFAD3E7002001A9FFF7AAFACEE70020A1
S315080029F001A9FFF71DFAC9E7002001A9FFF7A6FB01
S31508002A00C4E7002001A9FFF73BFCBFE700800050A0
S31508002A10548500084FF48032074B0849586E03F571
S31508002A2080535A664B6A23F001034B62C3035CBFAB
S31508002A30034B5A66704700BF0080005000000850DC
S31508002A4000A0005038B5036804460F2B04D940F699
S31508002A5094317C4804F040F963680F2B04D940F69A
S31508002A609731784804F038F9A3680F2B04D940F653
S31508002A709A31744804F030F9237B0F2B04D940F6B9
S31508002A809D31704804F028F9637B0F2B04D94FF465
S31508002A903A616C4804F020F9A37B3F2B04D940F631
S31508002AA0A331684804F018F9E37B3F2B04D940F6B4
S31508002AB0A631644804F010F92369032B04D940F6BB
S31508002AC0A931604804F008F96369032B04D940F674
S31508002AD0AC315C4804F000F9E369032B04D940F6ED
S31508002AE0AF31584804F0F8F88020FFF755FE032860
S31508002AF000F083804FF48012534B4FF0A0615A6662
S31508002B0045F60E02514BC3F88020514A91624FF4A4
S31508002B10803102F5805291629A6DD203FCD4996D88
S31508002B2011F08041FBD1D4E90002120542EA0062A5
S31508002B30E07B0243207B42EA0042607B42EA0032A5
S31508002B40A07B42EA80121A619869D4E904521206F7
S31508002B5042EA856200F000400243A07EE57E024319
S31508002B60207E42EA0042607E42EA00229A611A6AA0
S31508002B70E06922F00F0242EA8502364D00283DD16F
S31508002B801A6294F82420996A94F82000D200294001
S31508002B9042EA40120A4394F8211042EA011242F42A
S31508002BA080329A622C49294A936D31EA0303FBD194
S31508002BB04FF08071264881621369A56823F4700373
S31508002BC043EA055313614FF00043836194F82230BA
S31508002BD00BB9224B996294F823303BB94FF48032F3
S31508002BE01E4B9A62194A936D5B00FCD494F8253003
S31508002BF01BB1164B1A4AC3F8802038BD024342F06F
S31508002C00080202281A6208D119614FF4085299611C
S31508002C1014484FF47F4104F0B8F90C4994F822306F
S31508002C208A6A94F820001B062A4043EA4013134395
S31508002C3094F8242043EAC20394F8232043EA024383
S31508002C408B62D3E754850008009000500040005A74
S31508002C500050005AC7FFFEFE030001000060005A3C
S31508002C60F1A7FFFF3440005A014B93F90000704763
S31508002C70EC170020436810B5072B044604D940F624
S31508002C80F2512A4804F028F8A368032B04D940F621
S31508002C90F451264804F020F82378032B04D940F68B
S31508002CA0F651224804F018F894F90130002B04DA9A
S31508002CB040F6F8511D4804F00FF84FF400011C4A7D
S31508002CC0637851664FF4D151022002F5B832516249
S31508002CD018494F2B48604FF0010028BF4F2301F5D4
S31508002CE0805148601169C903FCD4217843EA01235D
S31508002CF05361D4E901131B0143EA0123617B0B43AA
S31508002D00217B43EA41039360E37BA17B1B0143EAF2
S31508002D104113617C0B43217C43EA41035360A37C46
S31508002D2013B16FF4D153536210BD00BF5485000828
S31508002D300090005000100250014B1880704700BFE9
S31508002D40EA170020014B1880704700BFE8170020DB
S31508002D504FF4800208B5184B5A660223174A536087
S31508002D60936813F48033FBD1012822D104F0EEFDD9
S31508002D70134B984215D003F5122303F5F8639842CE
S31508002D8013D0104B00EB8002400AB3FBF0F3520A53
S31508002D900A49CA620B6301234B620022074B5A6039
S31508002DA008BD45F67A13084AF2E745F61A03074AB4
S31508002DB0EEE75362F1E700BF009000500040025072
S31508002DC000F0490264666666D8B80500BBCF050000
S31508002DD0B0F5207F38B577D00ED8B0F5007F61D032
S31508002DE003D890B3B0F5C07F2FD040F21E31BDE8AE
S31508002DF038403D4803F070BFB0F5607FF5D13B4AD7
S31508002E004C1ED2F8FC5015F080751EBFD2F8FC3067
S31508002E1023F08073C2F8FC30032C04D94FF43F71B9
S31508002E20314803F059FF324AD2F8803023F0300394
S31508002E3043EA0413C2F8803035B12C4AD2F8FC3084
S31508002E4043F08073C2F8FC3038BD4C1E012C0AD9F9
S31508002E50102903D8274BCB40DB0704D440F2CF21F7
S31508002E60214803F039FF04F09FF804F0ABF84FF45B
S31508002E708031214B1E4A1967136F23F4704343EAC6
S31508002E800433136704F048FD0446FEF759FFC0F102
S31508002E900201204604F090F800F048F8BDE83840F2
S31508002EA0FFF76ABC4C1E1F2C04D940F212310E489B
S31508002EB003F012FF0E4AD2F8903023F0F85343EA93
S31508002EC00463C2F89030BFE74C1E012C04D94FF4B6
S31508002ED04671054803F000FF054A136F23F4806323
S31508002EE043EA84231367AFE75485000800ED00E042
S31508002EF000800050100101000090005008B5012123
S31508002F00022000F0B9F94FF42070FFF763FA054B79
S31508002F10187004F049F804F055F84FF48032024B63
S31508002F201A6708BD0E1700200090005008B54FF428
S31508002F30C070FFF7DDFABDE808400449884294BF2F
S31508002F40012102214FF42070FFF742BF80F0FA02F8
S31508002F5038B5044604F0E0FC0546FEF7F1FEC0F17C
S31508002F600201284604F028F80121002000F0D8F9CB
S31508002F702CB1FFF7DBFFBDE83840FFF7FDBB034B7D
S31508002F804FF420701978FFF723FFF4E70E17002097
S31508002F902DE9F0410546FFF799F9431E0333044628
S31508002FA004D940F6EC113B4803F096FE4FF4C022D4
S31508002FB0394B5A6603F598335A68012A04D13749BA
S31508002FC04A605A689207FCD48020FFF7E5FB05287B
S31508002FD007D103F0E9FF03F0F5FF4FF480322E4BDB
S31508002FE01A672F4B24F040749D4239D02D4B9D42D1
S31508002FF039D004F06BFC8542064603D901212846E0
S3150800300000F08EF9284FFB6813F0060FFBD1D7F8AE
S315080030100880BC60BB68634013F4F81F26D12846B5
S31508003020FDF722FD8020FFF7B7FB052814D104F031
S3150800303073FCA842044604D940F64521154803F016
S315080030404BFEFEF77DFEC0F10201204603F0B4FFF9
S31508003050FFF76CFFFFF790FBAE4213D2BDE8F08195
S3150800306044F00074C5E744F08074C2E740F63421A2
S31508003070084803F031FE8020C7F80880FFF78CFB6C
S31508003080052805D0BDE8F0410121002000F048B927
S315080030903546CCE7548500080090005000E0015002
S315080030A040420F0080841E00000001505C4B70B542
S315080030B0984205467FD035D85A4B5B4E984200F069
S315080030C08D8022D8002800F09880584B984264D00A
S315080030D0574B984250D0574B98423ED041F2F81180
S315080030E0554803F0F9FD40F69271534803F0F4FD94
S315080030F04FF400224C4B5A664E4B9D4200F08D8091
S3150800310000244A4A954253D073E04C4B984269D002
S3150800311003F5371303F5D8639842DFD1484BD3F844
S31508003120B8402CE0474B984250D00CD8464B9842B2
S3150800313048D003F5742303F510739842CED1404B5B
S31508003140D3F8C4403AE0414B984243D0404B9842AA
S31508003150C4D13B4BD3F8D04030E0394BD3F8A0402C
S31508003160621E033224F0407451D84FF4002373666C
S31508003170234643F000743CE0314BD3F8A040621E6E
S31508003180033224F0407431D940F692712A4803F08C
S31508003190A3FD4FF400237366B3E7294BD3F8A04089
S315080031A0621E033224F04074EED84FF4002373668F
S315080031B044F080741DE0224BD3F8BC40621E1A4EC0
S315080031C00332DEE71E4BD3F8C040F7E71C4BD3F8B3
S315080031D0C840F3E71A4BD3F8CC40EFE7184BD3F8BF
S315080031E0A440CCE7164BD3F8B040C8E74FF4002309
S315080031F073664FF0B442946070BD40F692710E4803
S3150800320003F06AFD4FF400232C467366F1E740F697
S315080032109271094803F060FDA7E70023A9E700BFFC
S315080032200024F400404B4C000090005080841E009F
S3150800323000093D0040420F0054850008809698001A
S315080032400080E00F80BA8C01C0EA21010048E8013D
S31508003250005A6202024A536B0342FCD1704700BF10
S3150800326000800950034A0179D36E23F030030B43DB
S31508003270D366704700400050F8B50446244BD3F88F
S315080032808420D006FBD4D3F88430C3F381139C4240
S315080032903CD004F021FB012C05460BD11D4B98426E
S315080032A004D940F29D711C4803F016FD01212846F9
S315080032B003F082FE04F047FF4FF00072174B0746F3
S315080032C05A66204603F083FE4FF48063104E621E52
S315080032D093403367736E9A0103D4D6F884309B06FD
S315080032E00AD5384604F02AFF022C0FD12846BDE835
S315080032F0F840002103F060BED6F884309906E9D577
S3150800330040F2B571044803F0E7FCE3E7F8BD00BFF7
S3150800331000400050005A6202D18500080060005043
S3150800332010B50C4608B904F0D7FA074B21461B78A6
S315080033303BB1064B984204D80120BDE81040FFF780
S315080033409BBF0220F9E700BF0F170020005A620250
S315080033504FF0004238B5244B244C5A664AF6CD3312
S31508003360656C014605F00105236428BB0120FFF7BB
S3150800337071FF6368DB0715D51D4B586008461D4B62
S31508003380226BD2070CD4984208D1072415B1174BE3
S31508003390194A1A6403F01CFE204638BD0130EFE7CF
S315080033A09842F2D00024F1E70132236B13F00803A8
S315080033B005D08A42F8D1E8E700220E49F5E78A42A5
S315080033C0E3D020210A4A91620121A2F58052516078
S315080033D00649084A886A800603D49342D5D0013341
S315080033E0F8E79342DDE700BF0090005000800950DF
S315080033F000A0095040420F003254FFFF4FF0004230
S3150800340038B5164B01465A664AF6CD33144C154A5A
S31508003410656C236443780B205B0043F00103D36398
S31508003420FFF718FF63688A7823F4F87343EA0213F0
S315080034306360CA784B7943EA0223A3600A798B79D9
S3150800344043EA022323610878FFF782FFEB0744BFAC
S31508003450054B236403F0BCFD012038BD00900050E5
S3150800346000800950004000503254FFFF0F2870B505
S31508003470044605D940F69A61124803F02DFC0F243C
S315080034804FF00042104B11495D6E03F580535A66A2
S315080034904AF6CD334E6C80200B64FFF7DBFE0B6AD1
S315080034A023F00F0323430B62F30744BF084B0B6457
S315080034B0002DA2BF4FF00042064B5A6603F088FD66
S315080034C070BD00BFD18500080080005000800950FB
S315080034D03254FFFF00A00050032838B504460D46B5
S315080034E005D8094B33F81030CB40DB0704D440F23B
S315080034F08541064803F0F0FB302301225C43044B68
S31508003500AA401A5138BD00BF588700084E860008E1
S3150800351040D00350032838B504460D4605D8094B54
S3150800352033F81030CB40DB0704D440F25641064846
S3150800353003F0D2FB302301225C43044BAA401A5104
S3150800354038BD00BF588700084E86000840E0035083
S3150800355003282DE9F04104460D461746984605D836
S315080035601D4B33F81030CB40DB0704D44FF4B07151
S315080035701A4803F0B1FB37B129462046B8F1000FC7
S3150800358020D0FFF7A9FF0F21072D04EB440688BFBB
S31508003590A5F108034FEA0616114895BFAB009B0034
S315080035A004360C3607FA03F29940304403F011FD4D
S315080035B07FB929462046B8F1000F06D0BDE8F0418C
S315080035C0FFF78ABFFFF7A6FFDDE7BDE8F041FFF783
S315080035D0A1BFBDE8F08100BF58870008D98600085A
S315080035E030C0035010B5232000F062FF0024FF22EC
S315080035F0064B21465C6520209A625C60FEF752FF06
S315080036002146BDE810402120FEF74CBF00000450BB
S31508003610072838B504460D4603DD7721084803F028
S315080036205BFB1F2C03D99121064803F055FB064A7C
S31508003630064B002D08BF13460122A2401A6038BD6A
S3150800364060870008DE8700084010045040200450B8
S3150800365010B5044618B991211F4803F03DFB23789D
S315080036601B0613F0604F03D092211B4803F034FB6E
S31508003670E3780F2B03D99521174803F02DFB012179
S315080036802020FEF70FFF01212120FEF70BFF012264
S31508003690124B23205A60227812069A606178A27823
S315080036A042EA01429A61FF229A6200229A631A64E8
S315080036B04FF000425A654FF0FF3203F500531A6582
S315080036C000F046FF2320E17800F050FFBDE81040E7
S315080036D0232000F00BBF00BF6087000800000450DD
S315080036E0F8B50126C3B2072805460C46174606FA5A
S315080036F003F603DDDE21344803F0EEFA1CB9DF21B8
S31508003700314803F0E9FA236823F47C1323F00F0306
S315080037101BB1E2212C4803F0DFFAA37A1B0413F449
S315080037207C0F03D0E721284803F0D6FAE37A1B0575
S3150800373013F07E6F03D0E921234803F0CDFA237BEB
S315080037405B0513F0FE5F03D0EB211F4803F0C4FAB4
S315080037501E4B27F003071E65AB00226803F1A04342
S3150800376003F588235A60302202FB05F0637B00F1DB
S31508003770A04000F580200366E37AA27A1B0543EA97
S315080037800243227B43EA4253C365076704F0E4FC1D
S315080037900F4B227A5E6502B11E64627A02B19E639D
S315080037A02279A37943EA0243084A93616179E37966
S315080037B043EA014306498B61064B56639E64BDE89E
S315080037C0F84004F0C4BC00BF60870008002004501D
S315080037D0001004500000045010B50124C3B2072895
S315080037E004FA03F404DD40F27B11074803F074FA87
S315080037F004F0B2FC054B5A6D22EA04025A659C6233
S31508003800BDE8104004F0A3BC60870008000004501F
S3150800381010B50124C3B2072804FA03F404DD40F204
S3150800382099110A4803F058FA04F096FC084BDA6A2C
S31508003830224208D15B6B9C430CBF0124002404F090
S3150800384086FC204610BD0024F9E700BF6087000803
S315080038500000045070B50125C3B20728044605FACE
S3150800386003F504DD4FF4E071094803F035FA04F076
S3150800387073FC3022074B5E6B02FB04335C6E04F06C
S3150800388066FC35420ABFC4F30A100020013070BD39
S3150800389060870008000004500D4B984208D1A3F534
S315080038A0D023C3F85812802300F58050C3657047AB
S315080038B0084B984204D1A3F5D823C3F87412F2E74B
S315080038C0054B984204BFA3F5E023C3F89012EAE734
S315080038D000000A5000400A5000800A50F8B5074612
S315080038E00C461E4615464AB940F25511314803F0B2
S315080038F0F3F924B1402E09D1062328E021B94FF463
S315080039002070FEF7F5FD0446402E42D0402E09D819
S315080039107EB1202E17D04FF4CE71BDE8F840254869
S3150800392003F0DAB9602EF6D1B5EB940F3CD8042330
S315080039300DE0B5EB141F04D940F287111D4803F0BA
S31508003940CBF9102303E0B5EBD40F1CD808235D434D
S315080039506B0803EB4413B3FBF5F3174D203BB5EBAC
S31508003960C30F4FEAC30404D240F2B311114803F05F
S31508003970B3F9602207F500539A602C4007F5805387
S315080039809E60FC61F8BD4FF4C6710A4803F0A4F9BD
S31508003990DCE70623B4FBF3F3AB42ADD240F2911158
S315080039A0044803F099F9A7E74FF4CB71014803F0EF
S315080039B093F9BCE768880008F8FF7F0038B5104B14
S315080039C0044698420D460CD003F58043984208D029
S315080039D003F58043984204D040F2F521094803F0E4
S315080039E07BF9012204F580535A60EB43934003F0B8
S315080039F00A036361656115B904F50054626038BD50
S31508003A0000000A50688800081B4B10B59842044607
S31508003A100CD003F58043984208D003F580439842BA
S31508003A2004D040F26F41154803F056F9012204F517
S31508003A3080535A6040F6AA6341F205026361002387
S31508003A400F49A360E365E26004F500522361E36170
S31508003A50E36491640849A3658C4203D12365002376
S31508003A60636506E007498C42F8D001F580418C422F
S31508003A70F4D00123536010BD00000A50688800087E
S31508003A80FFFF010000400A50424B70B598420446B9
S31508003A900D460CD003F58043984208D003F58043C1
S31508003AA0984204D040F226313B4803F015F92046E7
S31508003AB0FFF7AAFF012304F580567360AB7C1BB1A0
S31508003AC0A36843F08043A360EB7C1BB12046297DA5
S31508003AD0FFF7E2FE2A8A6B7B20461343EA891343E3
S31508003AE0E3602B7BD5E90112FFF7F8FE6B7D1BB16E
S31508003AF0A36843F48033A360AB7D1BB1A36843F48A
S31508003B000043A360EB7D2A7E1B07120502F4E00240
S31508003B1003F0E0431343A3656A7E2049931E012BF5
S31508003B201C4B1BD89C4215D003F580439C4213D0EE
S31508003B3003F580439C420CBF02234FF0FF3302205B
S31508003B40C1335B01C850032A1FD10423F3652B78C0
S31508003B50636170BD0023F2E70123F0E79C4210D0B1
S31508003B600F4B9C420FD003F580439C420CBF0223A7
S31508003B704FF0FF33022003F241135B01C850012ABC
S31508003B80E2E70023F6E70123F4E7042204F50053ED
S31508003B90DA65DCE700000A506888000800C00350B0
S31508003BA000400A5010B5044620B94FF40D7110486C
S31508003BB003F092F82378C3B1013BDBB2022B06D897
S31508003BC00C4A32F813306278D340DB0704D440F24B
S31508003BD03721074803F080F80122637821789A4054
S31508003BE030235943044B5A5010BDFF23EBE700BF5F
S31508003BF0E7880008028A000840E00350034BD3F820
S31508003C002424D3F820041040704700BF00C0035096
S31508003C102DE9F041037804460D46164613B3013BD9
S31508003C20DBB2022B06D82A4A32F813306278D34020
S31508003C30DB0703D45D21274803F04EF8264BD3F85B
S31508003C4010331BB16021234803F046F80F2D0BD81B
S31508003C50DFE805F036313131313131313131313149
S31508003C6031313131FF23E1E7B4211A4803F034F842
S31508003C704FF00008204606B303F056FF0F21677879
S31508003C802378072F03EB430388BF083F4FEA031344
S31508003C90124895BFBF00BF0004330C3308FA07F279
S31508003CA0B940184403F0A9F985B9204656B1BDE8CC
S31508003CB0F04103F039BFA846DCE7FFF773FFDDE7FD
S31508003CC0A846DBE7BDE8F041FFF76CBFBDE8F08129
S31508003CD0028A00087B89000800C0035030C00350E0
S31508003CE0B0F1B64F10B504460ED00A4B98420BD029
S31508003CF003F58043984207D003F58043984203D0E2
S31508003D00FD21054802F0E8FF012304F580546360AD
S31508003D1010BD00BF00000B5024840008B0F1B64F58
S31508003D2010B504460FD00C4B98420CD003F58043CF
S31508003D30984208D003F58043984204D04FF487711F
S31508003D40064802F0C9FF6368DB0742BF012304F592
S31508003D500054636010BD00BF00000B5024840008A7
S31508003D60B0F1B64F38B504460D460FD0094B984208
S31508003D700CD003F58043984208D003F58043984257
S31508003D8004D040F28511044802F0A6FF04F58054D9
S31508003D90256438BD00000B5024840008B0F1B64FE6
S31508003DA038B504460D460FD0094B98420CD003F59A
S31508003DB08043984208D003F58043984204D04FF4D4
S31508003DC0CB71044802F088FF04F50054256438BD19
S31508003DD000000B5024840008B0F1B64F38B50446ED
S31508003DE00D460FD0094B98420CD003F580439842F4
S31508003DF008D003F58043984204D04FF4DC71044898
S31508003E0002F06AFF04F50054E56338BD00000B5064
S31508003E1024840008B0F1B64F10B504460FD00A4BFB
S31508003E2098420CD003F58043984208D003F58043A6
S31508003E30984204D04FF4F271044802F04DFF236C07
S31508003E40E06B184010BD00BF00000B50248400082A
S31508003E50B0F1B64F38B504460D460ED0084B984219
S31508003E600BD003F58043984207D003F58043984268
S31508003E7003D07C21034802F02FFF656338BD00BFDD
S31508003E8000000B50088A0008B0F1B64F10B504467A
S31508003E900ED00A4B98420BD003F58043984207D0C0
S31508003EA003F58043984203D08E21054802F014FF9B
S31508003EB06369DB05FCD5606AC0B210BD00000B5013
S31508003EC0088A0008B0F1B64F2DE9F04106460D46BE
S31508003ED017461C460ED0354B98420BD003F5804347
S31508003EE0984207D003F58043984203D0B921304859
S31508003EF002F0F2FE1FB9BC212D4802F0EDFE1DB9F5
S31508003F00BD212B4802F0E8FE230206F58052936095
S31508003F10B3689A072FD5012C34D0022C34D0002C44
S31508003F2038D0D221224802F0D7FE0023AB4203D371
S31508003F30E7211F4802F0D0FE1E4B1B5D7B439846C7
S31508003F4003D1F2211A4802F0C7FE6C1E4444A4EBC2
S31508003F50C704B4FBF8F4013C1ED5F921144802F055
S31508003F60BBFEFA21124802F0B7FEB368C4F3080490
S31508003F70B461BDE8F081012C08D0022C08D04CB100
S31508003F80E121CFE70C4BD1E70C4BCFE70C4BCDE744
S31508003F900C4BCBE70C4BC9E7B4F5007FE1D2B3680D
S31508003FA09B07E3D5002C08BF0124DFE700000B5070
S31508003FB0088A00088E8A0008404B4C00809FD5006E
S31508003FC040548900002D310180841E00B0F1B64F9F
S31508003FD010B504460FD0164B98420CD003F5804313
S31508003FE0984208D003F58043984204D04FF4927162
S31508003FF0104802F071FEE023E36000232046A36028
S31508004000A361E3612362FFF789FE20460A49FFF7A9
S31508004010C5FE6369DB0509D420462021FFF7DCFECF
S315080040202046BDE810400449FFF7D6BE636AF0E7AC
S3150800403000000B50088A0008FFFF1F00B0F1B64FBA
S3150800404038B504460D460ED00B4B98420BD003F5F7
S315080040508043984207D003F58043984203D06921EC
S31508004060064802F039FE20466D0004F58054FFF735
S31508004070ADFFA56038BD00BF00000B50088A0008D8
S31508004080B0F1B64F10B504460FD00C4B98420CD081
S3150800409003F58043984208D003F58043984204D03C
S315080040A040F24F11064802F017FE6368DB0745BF6A
S315080040B0012300201120E36010BD00BF00000B5053
S315080040C0088A0008B0F1B64F10B504460FD00C4B5D
S315080040D098420CD003F58043984208D003F58043F4
S315080040E0984204D04FF4B371064802F0F5FD6368B0
S315080040F0DB0745BF022300201120E36010BD00BF87
S3150800410000000B50088A0008054B9A689107FCD4F2
S315080041105A689207F9D4DA69002AF6D1704700BFBF
S3150800412000C00A5010B5064C6368DB0703D4A52106
S31508004130044802F0D1FD03F023FD0223236110BDDC
S3150800414000C00A50928A000808B5FFF7DDFF012271
S31508004150024B03F580514A601A6108BD00C00A5037
S31508004160044B10B55C68012C03D1FFF7DBFF024B4B
S315080041705C6010BD00C00A5000E00A5038B5074D13
S31508004180FFF7C2FF6B680446012B03D1FFF7E8FF70
S31508004190FFF7BAFF2378EB6038BD00BF00C00A50AE
S315080041A038B505460C4603F0F5FCBDB962682378B8
S315080041B012B1127843EAC203627843EA4203A2685C
S315080041C012B1127843EA8213E27843EA820322693B
S315080041D012B1127843EA4223014A936438BD00BFFC
S315080041E000C00A5030B591488BB003F0C0FF20B12B
S315080041F040F251318E4802F06FFD6C468D4D0FCD61
S315080042000FC42B688C4A2360FF238DF80130D2F83F
S315080042104C3113F4802340F0FC80D2F850218DF8FD
S3150800422001309DF801306C46FF2B08BF3F236846D6
S31508004230824D8DF80130FEF71DFD3220FEF77CFD1C
S315080042400FCD0FC40FCD0FC495E8030084E8030013
S31508004250794BD3F84C21120300F1CA80D3F85041A8
S31508004260E4B28DF81940FEF7FFFC044484F3080411
S3150800427073488DF81840FCF7FDFB6846FEF7E2FB2D
S315080042803220FEF75FFD6F48FEF782FE6E48FEF7A6
S315080042900DFF6E4803F06BFF20B14FF4EB716448D5
S315080042A002F01AFD6A4C0020FEF752FDFEF726FEC4
S315080042B0236F002023F0070343F003032367FEF769
S315080042C047FE236F634923F474432367624BD3F88D
S315080042D0FC2012F0807200F09180D3F8FC2022F0C6
S315080042E08072C3F8FC20D4F8802022F0030242F042
S315080042F00102C4F880200022C1F88020D3F8FC20EF
S3150800430042F08072C3F8FC20514CD4F8203123F0D7
S31508004310070343F00203C4F82031D4F8283123F008
S31508004320070343F00203C4F82831D4F8803123F098
S31508004330030343F00103C4F88031D4F8403123F075
S31508004340030343F00203C4F84031D4F8603123F084
S31508004350030343F00203C4F86031D4F8403223F073
S31508004360030343F00203C4F84032D4F8003223F0C2
S31508004370070343F00203C4F80032D4F8083223F0E6
S31508004380070343F00203C4F80832D4F8503223F086
S31508004390030343F00203C4F85032D4F8703223F012
S315080043A0030343F00103C4F87032D4F8203223F033
S315080043B0070343F00103C4F82032FEF72BFB4FF046
S315080043C0E0220020136943F004031361D4F8603235
S315080043D023F0070343F00103C4F86032D4F894329B
S315080043E023F0070343F00103C4F894320BB030BD41
S315080043F01A4B1C88FF2C88BF8C2432E7D4F88030EF
S3150800440023F0030343F00103C4F88030C1F8802089
S315080044107AE74FF07E6393F89C2093F99C30002B43
S31508004420FFF6FFAE8DF80120FBE600BF408D0008C1
S31508004430598C0008FC8C00080080E00F108D0008DD
S31508004440C017530200B4C404C0EA2101448D000811
S31508004450008000500090005000ED00E00001E00FE1
S3150800446007B5094B18689A889B7900906846ADF895
S3150800447004208DF80630FEF7C1FF0C20FEF7F6FF84
S31508004480002003B05DF804FB388D000813B500243E
S31508004490064A6846536F43F00103536700948DF844
S315080044A00440FEF7DFFE204602B010BD0040005073
S315080044B05D2810B504460DD801220A49630904F09F
S315080044C01F04A240203341F82320BFF34F8FBFF3C8
S315080044D06F8F10BD4FF49571034802F0FDFB002C59
S315080044E0F7DBE9E700E100E0D88D00085D2810B5A4
S315080044F0044608D801236109074A04F01F04A340AB
S3150800450042F8213010BD40F23511044802F0E4FBB0
S31508004510002CF7DBEEE700BF00E100E0D88D0008CD
S315080045205C2810B5044604D94FF4A071064802F079
S31508004530D3FB064B621153F8220004F01F04E04037
S31508004540C04300F0010010BDD88D000800E100E06E
S31508004550002808DB01224309034900F01F008240B6
S31508004560603341F82320704700E100E038B500F1D8
S3150800457010036D2B04460D4604D940F2E5110E488A
S3150800458002F0AAFB0F2D04D94FF4F3710A4802F082
S31508004590A3FB60B20028ACBF00F16040074B4FEAAE
S315080045A00515EDB2ABBF00F5614000F00F0080F8CD
S315080045B000531D5438BD00BFD88D000814ED00E027
S315080045C010B503F0C9FD0A4B1A786AB901226FF0D3
S315080045D004041A7003F0BBFD204605210134FFF7D9
S315080045E0C5FF5D2CF8D110BDBDE8104003F0AFBD86
S315080045F01017002010B5044603F0AEFD024B1C60F0
S3150800460003F0A5FD002010BDD814002010B503F056
S31508004610A3FD034B1C6803F09AFD204610BD00BF9E
S31508004620D814002010B50020144602F00BFD02280D
S3150800463004D018B1C321024802F04EFB204610BD33
S315080046407F8E00083021037D02464B4303F1A043C9
S3150800465003F58023D86E07491B6F884208D113F0EB
S31508004660020006D0106A136D1B1A5842584170474B
S315080046700020704711170020302337B5007D0DF153
S315080046800701434303F1A04303F58023DD6E1C6F46
S3150800469003F006FA20B140F2F731084802F01CFB95
S315080046A09DF8070040B9064B9D4203D184F00204E9
S315080046B0C4F3400003B030BD0120FBE71B8F0008A0
S315080046C01117002038B50446FFF7D6FF98B1256DB7
S315080046D0D4E9122313449D4201D8AA4204D940F2D0
S315080046E04641094802F0F8FAD4E9120303449D4208
S315080046F018BF284638BD3022237D534303F1A04313
S3150800470003F58023DD6EE3E71B8F00082DE9F743E9
S31508004710D0E9043404F17C07D0F80C90013B064636
S315080047201022002138469DB2D4F8748002F0F2FFB8
S31508004730104BC5F30A0543EA0513C4E91F390123DB
S3150800474094F8780084F88C30C4F884803A460A4B8A
S31508004750009604F16401FDF753FA38B140F28B3143
S31508004760064803B0BDE8F04302F0B6BA03B0BDE8A8
S31508004770F08300BF00001030F54800081B8F0008C2
S315080047802DE9F04300F13806044685B010220021D1
S31508004790304602F0BFFF4FF44473534D207DC4E901
S315080047A00F556387FDF752FA20B140F2C4514F48BE
S315080047B002F092FA10220021304602F0ABFF4FF4C5
S315080047C0447363873023207DC4E90F55434303F1BF
S315080047D0A04303F58023DB6EAB420BD1FDF756FAF7
S315080047E0002876D040F2CD51404805B0BDE8F043E8
S315080047F002F072BA0DF10B0103F052F920B140F242
S31508004800D3513A4802F068FA9DF80B30002B63D171
S315080048102046FFF757FF03A90746207D03F062F9F4
S3150800482020B140F2DB51314802F056FA039B002BC7
S3150800483004DC40F2DD512D4802F04EFA039B04F1E8
S315080048401808013B1022002140469DB2D4F810906A
S3150800485002F060FF3022237DC5F30A0553432D017C
S3150800486045F04075C4E9065903F1A043276203F5EC
S3150800487080231A6F94F82410520862F3410184F8D1
S315080048802410196F94F8242028F0030861F3000215
S3150800489084F824201B6F626A9B0863F39F0248F022
S315080048A0020362626364009432462146104B207DFF
S315080048B0FDF7A6F920B140F2FE510C4802F00CFAB9
S315080048C0207DFDF7E3F920B140F20261074802F0C6
S315080048D003FA05B0BDE8F08394F844306FF341035A
S315080048E084F84430DFE700BF111700201B8F00084B
S315080048F0E970000838B55569144695F88C3023B91F
S315080049004FF45A710A4802F0E7F9002305F19000BE
S3150800491085F88C30FCF7D0F808B1FFF7F7FE636826
S315080049201BB100212046A2689847002038BD00BF69
S315080049301B8F000838B50446007DFDF787F920B1BE
S3150800494040F22B41084802F0C7F92046FFF77AFEE5
S315080049500546207DFDF79AF920B14FF48661024895
S3150800496002F0BAF9284638BD1B8F00082DE9F04F2A
S315080049709946002304468BB008910692C9F8003080
S31508004980D9F80060069B9D1B00F0BC80089B9E1909
S3150800499000F0B8802046FFF7CDFF8046002840F09B
S315080049A0B1802046FFF78EFE226D904240F2B3801A
S315080049B0801A854228BF054694F896A0BAF1000FDA
S315080049C000F0E98003F0C8FB236D079020460993A1
S315080049D0FFF752FE2F46099B834658198342D4F89F
S315080049E0981040F0B380D4E9122313448B4208BFD1
S315080049F0C4F89820D4F898108A4201D88B4204D873
S31508004A0040F23B51854802F067F9079803F09FFB8F
S31508004A10DA46207DFDF71AF920B140F279417F4840
S31508004A2002F05AF92046FFF727FE06462046FFF70A
S31508004A3049FE236D8346984240F2BC8026B140F277
S31508004A408341764802F048F9A26C236DAEB29342D0
S31508004A5040F0A880099304F1280823691022002150
S31508004A604046079302F056FE3021079B013EE3625B
S31508004A70099BC6F30A062363237D36014B4328F0B8
S31508004A80030803F1A04346F0407648F0020203F516
S31508004A908023A6621A67236DD4E912122B440A44AE
S31508004AA0934208BF0B469342236504D340F2D6418E
S31508004AB05A4802F011F9236D9B4505D1012320467A
S31508004AC084F85430FFF75CFE207DFDF7DFF820B14F
S31508004AD04FF49E61514802F0FFF894F896303BB1C6
S31508004AE0BAF1000F04D0236E112120465B6898475F
S31508004AF0D9F8003037B1069A3B449342C9F80030DA
S31508004B00FFF43EAFD9F80030002B14BF00201B205D
S31508004B100BB0BDE8F08FD4E912310B449A4204D3A6
S31508004B2040F261413D4802F0D7F8D4E91232134405
S31508004B30226D9B1A9D4228BF1D46002D7FF43CAF6F
S31508004B4040F20F51354802F0C7F835E701335A1ECF
S31508004B50914210D1C4F8983013F8012C112A01D0CB
S31508004B60132A14D1013FA2F111014A424A41D04603
S31508004B7084F89C2032E713F8012C02F0FD01112974
S31508004B8006D1013FB8F1000F3FF428AFEBE7D04656
S31508004B9006F8012B22E72A463046216D02F04CFD25
S31508004BA02F4636E7238DC3F30A12164466F30E130F
S31508004BB0238570E7207D96B93023584300F1A0403D
S31508004BC000F58020426E436EC2F30A1223F4FF43B7
S31508004BD02A4423F0700343EA021343665BE7104B4B
S31508004BE0049403930023CDE90153012300935A4605
S31508004BF02369216802F0AFF920B140F2C2410748A3
S31508004C0002F06AF83022237D534303F1A04303F5EB
S31508004C1080235A6E22F480125A663CE71B8F0008DE
S31508004C20E97000082DE9F84F90F8943004460D46CF
S31508004C30002B40F0858090F89580DFF808918E1853
S31508004C40B54223D094F896306BB12046FFF772FE32
S31508004C50F8B1D4F89820236D9A4204D040F2CD21B9
S31508004C60484602F039F894F89C30002BE8D0236EB9
S31508004C702F462A785B68B8F1000F59D1236E204673
S31508004C805B683978013598470028D9D00020BDE8F7
S31508004C90F88F03F061FA0746207DFCF7D7FF20B1AD
S31508004CA040F2D321274802F017F82046FFF70AFDFD
S31508004CB0A26C00F1FF3A924538BFE36C207D3CBFF9
S31508004CC003F1FF3302EB030A94F854B0FCF7DEFF56
S31508004CD020B140F2DF211B4801F0FEFFD4F89810FE
S31508004CE0BBF1000F22D0236D8B4204D04FF43971EB
S31508004CF0144801F0F1FF384603F029FAB3E7A26C2D
S31508004D009A4202D9E36C013B134499420BD013F83B
S31508004D100129112A01D0132AF1D1A2F111035A420D
S31508004D205A4184F89C20C4F898A0E4E75346ECE777
S31508004D300A2AA3D10D212046984700289ED0A5E728
S31508004D400E20A4E71B8F0008F0B50C46154606464C
S31508004D50A022002189B0204602F0DCFC2746AC469A
S31508004D60BCE80F000FC7DCF8003005F1140C3B60F7
S31508004D7004F16407BCE80F000FC7DCF80030EA6AE4
S31508004D803B60AB6AC4E9132395F83020A36484F822
S31508004D90952095F83320C4F89830012384F8962096
S31508004DA084F89C3084F85430AB6B2366324B3460FD
S31508004DB07360324BB360324BF360324B7361324BE4
S31508004DC0B361324B3361FCF7E7FE10B1304B9842C2
S31508004DD00FD1002107A8FCF767FE014648B9079BD3
S31508004DE007A82375FCF760FE0346207D23B1FCF770
S31508004DF0ADFE102009B0F0BD079B84F87830FCF7AB
S31508004E0025FF0028F5D1234B0494CDE90203E36C72
S31508004E100193012300932369A26C2168207D02F087
S31508004E209AF80028E5D13022237D4FF480115343A8
S31508004E3042F2640203F1A04303F580239950AB6B59
S31508004E4093F91000FFF784FBAB6B93F91000FFF79B
S31508004E504DFB04F1900001F040FF3046FFF7CAFB16
S31508004E602046FFF78DFC207DFCF710FF003818BFA1
S31508004E7001200001BEE700BF254C00085971000853
S31508004E806D490008DD700008E3700008994E0008B7
S31508004E90038000F0E970000870B50568044695F8C7
S31508004EA09460002E3BD102F07AF9FFF7AFFB8442FB
S31508004EB002D13046FFF79EFB2B6E93F91000FFF7E1
S31508004EC047FB2B6E93F91000FFF7F2FA287D02F0E4
S31508004ED0A1FD20B140F29721144801F0FDFE287D7E
S31508004EE0FCF734FE20B140F29B21104801F0F4FE95
S31508004EF0FCF70AFE38B10E4B984204D040F29F21C7
S31508004F000A4801F0E9FE0023C4E90033C4E9053381
S31508004F10E3602B6E2846BDE87040DB68184740F210
S31508004F206621024801F0D8FE0F2070BD1B8F0008CD
S31508004F30058000F0F8B517461C46564A8B6B069D49
S31508004F401A60554A5A6000229A60544ADA600A463C
S31508004F502946FFF7F9FE0646002840F094802368A4
S31508004F600121C5F8A03063683A20C5F8A430637AF1
S31508004F7085F8A930237A85F8A830E37A85F8AB3026
S31508004F80A37A85F8AA30637B85F8AD30237B85F84C
S31508004F90AC30E37B85F8AF30A37B85F8AE30FDF700
S31508004FA081FA01230422617A207AFEF7D1FA0123D5
S31508004FB00222E17AA07AFEF7CBFA01216068FDF7B2
S31508004FC071FA3E7039462068FEF75EFD1420617C52
S31508004FD0334B01F1410252019850607A227A03EB71
S31508004FE0411342EA0042C3F83828E17AA27A42EA33
S31508004FF00142C3F8302885F8B0607B7E032B46D87B
S31508005000DFE803F03943021C022385F8B030002399
S315080050100422E17BA07BFEF79BFA0220617C204BF1
S3150800502001F1C1025201985003EB411341F62C01DC
S31508005030E07BA27B42EA00425A501CE0012785F831
S31508005040B03002220023617B207BFEF781FA617B68
S31508005050227B637C42EA014241F628015B0103F1A7
S31508005060A04303F570335A500422236803F580538E
S31508005070DA65002FCBD120680A4A00F500530521CE
S315080050809A64FEF79BFC3046F8BD0027D7E723262F
S31508005090F9E700BFBB71000845720008CF71000828
S315080050A000C00350FFFF0100F421014801F014BEBF
S315080050B0AD8F00080346054A0549106803448B422C
S315080050C08CBF4FF0FF301360704700BF48170020B1
S315080050D00000082070B503F03FF8144E05463478F2
S315080050E0FCB9134B1C60134B1C60134B1C6000F07F
S315080050F047F8012003F0DAF802F0BCFF0F4B02462E
S31508005100186020B9284603F022F8232070BD2346EC
S3150800511040F2E7310A4801F051F90A4B18600123B9
S315080051203370284603F013F80020EFE71417002021
S31508005130E4140020E0140020EC140020E8140020F9
S3150800514018FCFFFFDC140020012300B58DB08DF894
S315080051500F3002F0AFFE00230146CDE90033074ABF
S315080051600DF10F0304A803F06DF818B99DF80F3078
S31508005170002BFBD10DB05DF804FB00BF3F82000891
S3150800518010B5002486B01422214601A88DF80040E7
S3150800519002F0C0FA012313488DF8043002F0E7FF45
S315080051A0BFF34F8F6846FEF7E9FF204601A98DF841
S315080051B00440FEF7F5FF20460F2102F00BFD0F21F4
S315080051C0204602F015FDFEF7BFFF02F0D9FC064B9C
S315080051D053209C61FFF7BCF95320FFF787F906B007
S315080051E010BD00BF408D000800C00A5010B5044627
S315080051F002F092FB4FF47A729042B0FBF2F105D2BC
S315080052003621BDE810400C4801F066BD0B4BB3FBD8
S31508005210F1F30B49884201D93C21F2E702FB04F07D
S31508005220B0FBF3F0022806D9BDE810400323B0FB13
S31508005230F3F0FAF7C5BF10BDD190000840420F0041
S31508005240E7CD9A3B2DE9F04F9B4691B00B1E0A938A
S31508005250AD4B904614BF8146994600241A9E9BF88A
S31508005260000070B9444538BF224643464FF0000057
S315080052700A9928BF08F1FF32C847204611B0BDE891
S31508005280F08F25280BF1010B06D0224643460A99D2
S31508005290651CC8472C46E2E700230DE02D2A2AD0D4
S315080052A0302A06D0303A092A4FF0000711D80A25C5
S315080052B032E043F001038B46594611F8012B2B2A9D
S315080052C01CD0EBD8202A1CD0232A1DD02A2A2BD062
S315080052D000279BF800202E2A64D19BF801100BF1B9
S315080052E00102A1F13000092843F4806351D8002552
S315080052F04FF00A0C26E043F00203DCE743F0040310
S31508005300D9E743F00803D6E743F01003D3E78B4603
S3150800531005FB0722A2F13007594611F8012BA2F125
S3150800532030000928F3D9D4E756F8047B8B46002FBA
S31508005330BCBF43F002037F42CBE702460CFB0511D4
S31508005340A1F13005104610F8011BA1F1300EBEF18F
S31508005350090FF2D9114611F8010B6C282CD024D864
S31508005360682830D06A2837D011468B461BF8010BBF
S31508005370672875D857284BD8452807D085D9462891
S3150800538000F03281472880D143F4006343F02003BC
S3150800539040E12A2907D156F8045B0BF1020225EAF7
S315080053A0E575D7E75A460025D4E7742801D07A2848
S315080053B0DAD143F48073D8E750786C28F9D143F4EE
S315080053C04073911CD1E75078682802D043F08003D7
S315080053D0CBE743F0C003F4E743F40073C5E70A2AB2
S315080053E000F06381072A7FF450AF43F02103059349
S315080053F00823CDE903531023CDE9011356F8043BDE
S3150800540022460093484643460A9902F046F8FBE0CE
S31508005410A0F158020F2A3FF638AF01A151F822F041
S31508005420915400088B5200088B5200088B520008D2
S315080054308B5200088B5200088B5200088B520008CA
S315080054408B5200088B520008915400083356000806
S31508005450915400080D560008ED5500080D56000831
S31508005460A0F16902D2B20F2A3FF60FAF012149F225
S31508005470410C914011EA0C01B1D0782803F48061FF
S3150800548022D1002900F0918023F00D02102307E0B5
S31508005490622803F4806220D142BB23F00C02022367
S315080054A012F4007100F08480CDE907720022CDE97C
S315080054B0043206F1070A2AF0070A06950292FAE864
S315080054C00223CDE900233DE06F2812D123F00C0218
S315080054D009B123F00D020823E2E7582816D1002A5D
S315080054E039D123F00C0242F02002CFE723F00D0257
S315080054F0D5E7692823F0100230D023F01C0209B141
